S00E00004D794752424C2E7372656329
S11300000C94AF010C94CC010C94CC010C94BD2C39
S11300100C94F5300C94CC010C94CC010C94CC01D0
S11300200C94CC010C94CC010C94CC010C9444178A
S11300300C94CC010C94CC010C94CC010C94CC0108
S11300400C943C190C94CC010C94A0120C947612D0
S11300500C94CC010C94CC010C94CC010C94CC01E8
S11300600C94CC010C94CC01CD06CD06CD06CD0666
S1130070B00639103910391039103910A506391065
S113008039103910391039103910F606F606F6060B
S1130090150715073910391039103910391039106E
S11300A0A5063910A5063910391039103910391040
S11300B039103910CD0639103F07391039101B0794
S11300C0391039103910391039101B07391039100B
S11300D03910B006330733073307330733073307C1
S11300E039103907391039103910391039103910CD
S11300F039103910391039103910391039103910B4
S11301003910391039103910D30639103910391013
S1130110391039103910391039103910FC06FC0621
S1130120A5060F070F0768076807680777077707AB
S11301307707531053108E078E0753105310531024
S11301405310531053105310531053105310531093
S11301505310531053105310531053105310531083
S113016053106807C30757105710CD07DA07E7077E
S1130170F4075710F80757100608571010081A0804
S11301802408571057105710340841084E08D41249
S1130190D812E012361336133613361336133613C9
S11301A0361336133613E912ED12F112F512F91261
S11301B0FD1201130513361309130D13111315132F
S11301C019131D1336132113282F2D2F322F372FD8
S11301D03C2F412F462F4B2F502F552F5A2F084A73
S11301E0D73B3BCE016E84BCBFFDC12F3D6C743147
S11301F09ABD56833DDA3D00C77F11BED9E4BB4C9E
S11302003E916BAAAABE000000803F05A84CCDB267
S1130210D44EB93836A9020C50B9918688083CA648
S1130220AAAA2ABE000000803F0000007A43000012
S11302307A4300007A430000FA430000FA430000C6
S1130240FA4300A00C4700A00C4700A00C47000094
S113025048C3000048C3000048C30A000019010A4B
S1130260D7233C6F12033B00007A440000000000D7
S1130270000000C8410000FA43FA000000803F5B20
S11302806563686F3A20005B5052423A000D0A479A
S113029072626C20312E3168205B27242720666F20
S11302A0722068656C705D0D0A00536C6565706939
S11302B06E6700526573746F72696E67207370693C
S11302C06E646C6500526573746F72696E67206446
S11302D0656661756C74730050676D20456E6400CB
S11302E0436865636B204C696D697473004368658A
S11302F0636B20446F6F720044697361626C656460
S113030000456E61626C65640043617574696F6E6B
S11303103A20556E6C6F636B656400272448277C14
S11303202724582720746F20756E6C6F636B0052FE
S11303306573657420746F20636F6E74696E756580
S1130340005B4D53473A00414C41524D3A000D0A6F
S1130350006572726F723A006F6B0D0A000011240F
S11303601FBECFEFD8E0DEBFCDBF11E0A0E0B1E00B
S1130370E0ECFDE602C005900D92A230B107D9F77A
S113038027E0A2E0B1E001C01D92A436B207E1F774
S11303900E94CE010C94DE360C9400000E944A1296
S11303A00E9404240E94C5190E94D2308CE0ECE91A
S11303B0F5E0DF011D928A95E9F7789410927C05A7
S11303C0CCE7D5E00F2EF1E1DF2EF02D14E60F2E51
S11303D0F0E9EF2EF5E0FF2EF02D0CE08881FE0110
S11303E09D2D11929A95E9F788831F8318871987A1
S11303F0D701E02F1D92EA95E9F710928F0510922C
S11304008E051092A80510927B0510928D050E940E
S113041047130E94F4050E940A110E942D120E94A3
S1130420732C0E947E2E0E949F250E9492190E9486
S1130430412A0E9406060E94622F0E944016CECFD7
S1130440EF92FF920F931F93CF93DF938C017B0165
S11304508091530785FF07C080917C05803239F075
S1130460C8010E94EC2C80917C05823019F1CCE704
S1130470D5E00E941D15898181111CC00E94EF25C1
S1130480882319F00E945813F4CFB701C8010E94C1
S11304902E2781110FC08091530781FF0BC0F701F4
S11304A0808584FF07C0448155816681778180E11E
S11304B00E940C12DF91CF911F910F91FF90EF904A
S11304C008952F923F924F925F926F927F928F92F4
S11304D09F92AF92BF92CF92DF92EF92FF920F93CF
S11304E01F93CF93DF93CDB7DEB7E2970FB6F8949F
S11304F0DEBF0FBECDBF9AAB89AB788B6F875E87AB
S11305004D873901ED82FE820F831887898AD12CA9
S1130510CC0CDD1CCC0CDD1CCA018C0D9D1D9E8BEE
S11305208D8BD901AC0DBD1DBEA7ADA72D903D90FF
S11305304D905C90FC012081318142815381C20144
S1130540B1010E943A326F8B788F898F9A8F0A2D6E
S113055010E0000F111F000F111F8D859E85800F65
S1130560911F9C8F8B8FD301A00FB11FB8ABAFA786
S11305708D909D90AD90BC90FC0120813181428191
S11305805381C501B4010E943A326D8F7E8F8F8FE3
S113059098A3D201C101B05889839A83AB83BC83E9
S11305A0D501C401B05889879A87AB87BC87E9A96C
S11305B0FAA9EC0DFD1D2F89388D498D5A8D608166
S11305C07181828193810E9439326B017C01E9A996
S11305D0FAA9E00FF11F2D8D3E8D4F8D58A160813A
S11305E07181828193810E9439324B015C01A701A0
S11305F0960169817A818B819C810E9491352B01BE
S11306003C01A501940169857A858B859C850E94AE
S113061091359B01AC01C301B2010E943A322B0116
S11306203C01A501940169817A818B819C810E949E
S113063091354B015C01A701960169857A858B850B
S11306409C850E9491359B01AC01C501B4010E94B7
S11306503932A30192010E94B9324B015C01289600
S11306608FAD28978823A9F02DEB37E346E055EBAF
S1130670C501B4010E9451358823FCF02BED3FE005
S113068049EC50E4C501B4010E9439324B015C01CC
S113069014C02DEB37E346E055E3C501B4010E94D5
S11306A02F33181654F02BED3FE049EC50E4C5010C
S11306B0B4010E943A324B015C01C0904707D090CC
S11306C04807E0904907F0904A072D813E814F8109
S11306D05885CA01B9010E943A322B013C01A70195
S11306E09601C301B2010E943932A70196010E940A
S11306F091350E9430366B017C0120E030E040E00F
S11307005FE3C501B4010E9491352D813E814F8183
S113071058850E9491359F77A70196010E9439332D
S11307200E941E340E94B2336B017C013B016115AF
S1130730710509F488C1AF85B88918961C9113FF17
S113074018C080E090E00E94E1339B01AC01EF858A
S1130750F88960817181828193810E949135AF858E
S1130760B8896D937D938D939C931397177F1896F7
S11307701C93B60180E090E00E94E1336B017C01A0
S11307809B01AC01C501B4010E94393369A77AA762
S11307908BA79CA7B9898B2E912C880C991C880C4B
S11307A0991C4D845E84480C591CE9A9FAA9E80DEA
S11307B0F91DD2012D913D914D915C916081718122
S11307C0828193810E943932A70196010E943933B4
S11307D0698B7A8B8B8B9C8B29A53AA54BA55CA541
S11307E0CA01B9010E9491359B01AC0160E070E03F
S11307F080E090E40E9439326B017C012BEA3AEAF2
S11308004AE25EE369A57AA58BA59CA50E94913571
S11308104B015C0120E030E040E850E4C701B60140
S11308200E943A329B01AC01C501B4010E9491358A
S113083069A37AA38BA39CA320E030E040E05FE3AC
S1130840C701B6010E9491356DA37EA38FA398A71B
S1130850B2E06B16710408F4F6C010E0222423946D
S1130860312CC984DA84EB84FC841C3008F044C045
S1130870A70196016DA17EA18FA198A50E94913533
S11308804B015C0129813A814B815C8169A17AA188
S11308908BA19CA10E949135A50194010E943A323A
S11308A0962EA72EB82E092F29813A814B815C817F
S11308B06DA17EA18FA198A50E94913569837A8349
S11308C08B839C83A701960169A17AA18BA19CA12A
S11308D00E9491359B01AC0169817A818B819C8155
S11308E00E94393269837A838B839C831F5FC92C6E
S11308F0DA2CEB2CF02E66C0B10180E090E00E946F
S1130900E13329A53AA54BA55CA50E9491356B015D
S11309107C010E9434336D837E838F839887C70163
S1130920B6010E94223669877A878B879C87EDA55A
S1130930FEA5C080D180E280F380F7FAF094F7F846
S1130940F094AFA5B8A98D909D90AD90BC90A701EF
S113095096016D817E818F8198850E94913569838E
S11309607A838B839C83A501940169857A858B8521
S11309709C850E9491359B01AC0169817A818B81B0
S11309809C810E943A3269837A838B839C83A7017A
S1130990960169857A858B859C850E9491356B01CA
S11309A07C01A50194016D817E818F8198850E94CF
S11309B091359B01AC01C701B6010E9439326B012C
S11309C07C0110E02F89388D498D5A8D69817A8197
S11309D08B819C810E943A32ED89FE896083718308
S11309E0828393832D8D3E8D4F8D58A1C701B6010F
S11309F00E943A32AB8DBC8D6D937D938D939C9305
S1130A00139729893A894B895C89F2016081718144
S1130A10828193810E943A32D2016D937D938D93AA
S1130A209C9313976F8578898D859E850E942002FB
S1130A3080917D0581110DC0BFEF2B1A3B0A621412
S1130A40730409F012CF6F85788989A99AA90E9445
S1130A502002E2960FB6F894DEBF0FBECDBFDF9141
S1130A60CF911F910F91FF90EF90DF90CF90BF90A7
S1130A70AF909F908F907F906F905F904F903F903A
S1130A802F900895CF92DF92EF92FF9220917C05F0
S1130A90223049F06B017C010E94E91640E0C70155
S1130AA0B6010E94222BFF90EF90DF90CF90089523
S1130AB0DF92EF92FF920F931F93CF93DF932091D6
S1130AC07C05223009F45FC0D42E7B018C010E9486
S1130AD0E91680917D05811158C010928105D3FAE1
S1130AE0882780F90E946C2E0E94842E882351F05E
S1130AF084E00E940F320E941D1580E00E946C2E3B
S1130B0082E046C0B701C8010E94200281E08093C0
S1130B108F0582E00E94FC31CCE7D5E00E941D15D0
S1130B208981811134C088818111F8CF80918F052A
S1130B30813081F4D4FE0AC08CE0ECE9F5E0A0E950
S1130B40B5E001900D928A95E1F707C085E00E9417
S1130B500F3203C081E08093810510928F0580E0FD
S1130B600E946C2E0E941D150E9492190E949F25BE
S1130B700E94412A0E94833081E090918105911165
S1130B8007C080E005C080E003C082E001C082E0CD
S1130B90DF91CF911F910F91FF90EF90DF90089517
S1130BA080918E0584FD1FC080E10E94FC310E946B
S1130BB004110E942B1280917C05982F9C7221F4C1
S1130BC090918005967079F0843041F48091A80565
S1130BD0811107C086E00E940F3203C083E00E94A7
S1130BE00F320E941617089580E4EAEAF5E0DF0167
S1130BF01D928A95E9F76EEC75E080E00E94CD23A2
S1130C00811103C087E00E94F22E08956CE975E01B
S1130C1082EC95E00E94763108952F923F924F9294
S1130C205F926F927F928F929F92AF92BF92CF9278
S1130C30DF92EF92FF920F931F93CF93DF93CDB781
S1130C40DEB7AD970FB6F894DEBF0FBECDBF8C01F3
S1130C508AE3EAEEF5E0DF011D928A95E9F78BE07D
S1130C60EAEAF5E0ABEEB5E001900D928A95E1F782
S1130C70F8018081843211F00C94A310EAEEF5E0BF
S1130C8081E08183128283E08983F1E0F8A3212C3F
S1130C90312CE12CF12C1F8E1D8E1E8ECC24C3947E
S1130CA0D12C0F2EF1E68F2EF3E09F2EF02D1C8F0A
S1130CB00B8F22C29FEB910F9A3110F00C943510D8
S1130CC08F5F8983AE014E5F5F4FBE016F5F7F4FC1
S1130CD08B8D9C8D0E945C2A882311F40C94371010
S1130CE04A805B806C807D80C301B2010E947436AF
S1130CF00E94B233A62E70E080E090E00E94E333BD
S1130D009B01AC01C301B2010E94393220E030E002
S1130D1048EC52E40E9491350E94FE350E94B233A1
S1130D20862F972F173421F01D3409F4C1C01DC13B
S1130D304A2C512C2FE54216510410F00C94391012
S1130D40F201EC5CFF4F0C94BC36009711F00C944C
S1130D50A7103E8D332311F40C94AF100C943B1068
S1130D60AAEEB5E0AC92BCE1AB1631F0EEE1AE1602
S1130D7019F0FCE5AF1285C0009749F00A9739F0E5
S1130D800C943D1021E02E8F02C031E03E8F6A0D9D
S1130D90AAEEB5E06C9320E07BC0BE8DB1110C943B
S1130DA03F10E2E0EE8FA092EB05F6E2AF126BC0CB
S1130DB08431910551F08E31910539F088329105D5
S1130DC021F0C29711F00C944110262F372FADEC6F
S1130DD0BCEC0E94C2369695879596958795969514
S1130DE0879586578093EB0521E052C06FEE6A0D1C
S1130DF06093EF0522E048C0009731F466EA6A0D7B
S1130E006093EE0523E044C00A9711F00C9443105C
S1130E102AE5A21611F40C94451024E039C02EE5FD
S1130E202A192093EC0525E02FC025E12A192093E7
S1130E30ED0526E029C03E8D31110C94471041E3A5
S1130E40A41206C01092F00528E083E08E8F20C023
S1130E500A9711F00C94491091E09093F00528E062
S1130E60A3E0AE8F15C06AEC6A0D6093F10529E02A
S1130E700BC0892B11F00C944B102AE009C027E019
S1130E8003C020E001C021E0892B11F00C944D1027
S1130E90C60102C0880F991F2A95E2F797012823FB
S1130EA03923232B11F00C944F10E82AF92A24C17A
S1130EB0892B11F00C9451108A2D90E08F319105FB
S1130EC010F00C945310FC01ED56FF4F0C94BC36FB
S1130ED0AA2021F0B1E0AB1699F105C0E3E0E0935C
S1130EE0F2058BE032C0A092F2058BE02EC0F4E054
S1130EF0AF1659F025E0A21669F033E0A31222C020
S1130F0080E18093F4058CE020C080E28093F405B6
S1130F108CE01BC01092F4058CE017C048E0A416C6
S1130F2021F089E0A81641F00FC08091F305806498
S1130F308093F3058DE009C01092F3058DE005C0A0
S1130F408BE003C08CE001C08DE0D60102C0AA0F83
S1130F50BB1F8A95E2F797012A233B23232B11F029
S1130F600C945510EA2AFB2AC7C0812F90E0FC019B
S1130F70E654F109E531F10510F00C945710EE54E4
S1130F80FF4F0C94BC364092F6055092F7056092E0
S1130F90F8057092F90580E08DC04092FA055092F0
S1130FA0FB056092FC057092FD05BF8DB160BF8F9B
S1130FB081E080C04092FE055092FF0560920006D9
S1130FC070920106EF8DE260EF8F82E073C0409271
S1130FD00206509203066092040670920506FF8D85
S1130FE0F460FF8F83E066C0A092060684E062C0CE
S1130FF0C301B2010E94AB336093070670930806E5
S11310008093090690930A0685E054C040920B062B
S113101050920C0660920D0670920E0686E04AC04D
S113102040920F06509210066092110670921206BA
S113103087E040C040921306509214066092150651
S11310407092160688E036C020E030E04FE753E4A3
S1131050C301B2010E945135181614F40C945910AE
S1131060A092170689E026C04092180650921906ED
S113107060921A0670921B062D8D21602D8F8AE0D6
S113108019C040921C0650921D0660921E06709272
S11310901F063D8D32603D8F8BE00CC040922006D0
S11310A05092210660922206709223064D8D446070
S11310B04D8F8CE05601082E02C0AA0CBB1C0A946A
S11310C0E2F791012A213B21232B11F00C945B10B0
S11310D0D40102C0B595A7958A95E2F7A0FF0AC08E
S11310E020E030E0A901C301B2010E942F3388231C
S11310F00CF4E3C72A283B288981EB8DFC8DE80F8B
S1131100F11D10811111D6CDBD8DBB2329F0EE8DBB
S1131110E11102C0F2E0FE8F25FE0EC080910706A9
S113112090910806A0910906B0910A068138964963
S1131130A849B1050CF0C3C738A13323E1F020FE60
S1131140C0C78091ED05813009F054C00AEE15E066
S113115023E333E34BEC51E4D8011C966D917D916C
S11311608D919C911F970E949135F8016487758732
S1131170868797873FC08091EC05813061F4FE8DAE
S1131180F230C1F58091EB058035A1F1882391F10E
S113119020FE99C72FC08091AB0581112BC020FE82
S11311A019C08091ED05813029F50AEE15E023E39D
S11311B033E34BEC51E4D8011C966D917D918D91F4
S11311C09C911F970E949135F801648775878687E3
S11311D0978710C08091B9059091BA05A091BB057D
S11311E0B091BC058093F6059093F705A093F8059C
S11311F0B093F90530FC10C08091B5059091B60507
S1131200A091B705B091B805809313069093140686
S1131210A0931506B09316068091EA05843021F454
S113122026FE53C7E89426F88091EF05882349F0F9
S1131230813009F49CC71BA6F2E0FAA321E029A39C
S11312409BC78091ED058130A1F532E03BA741E0D9
S11312504AA319A20F2EFAEEAF2EF5E0BF2EF02D01
S113126000E010E08D8DC82ED12CC601002E02C0E6
S1131270959587950A94E2F780FF12C023E333E340
S11312804BEC51E4D5019E966D917D918D919C918D
S1131290D1970E949135F50166A777A780AB91ABF2
S11312A00F5F1F4FF4E0AF0EB11C03301105E9F6D8
S11312B005C022E02BA731E03AA319A24E8D43309A
S11312C041F48091F005813021F48D8D843009F052
S11312D0FEC68CE0EEECF5E0DE01169601900D9270
S11312E08A95E1F7F1FE11C08091F105873008F08D
S11312F0F0C69091B005891741F0BE016A5F7F4F37
S11313000E94CD23882309F4E6C6B090EA059AE04A
S1131310B91629F0ACE5BA1609F49AC00EC1BD8D10
S1131320BB2309F4DAC6C10180759927892B09F416
S1131330D6C660910B0670910C0680910D069091B3
S11313400E060E9474360E94B233673008F0C9C694
S113135080910606843129F0823009F0C4C627FC46
S1131360C4C6EFEA2E22662319F061506B8F03C0C6
S1131370F091F105FB8F6AEF75E08B8D0E94CD2310
S1131380882309F4B4C6209106062BA34090E605F1
S11313905090E7056090E8057090E9050AEE15E0C5
S11313A00F2EFAEACF2EF5E0DF2EF02DA12CB12C72
S11313B03D8D832E912CC4010A2C02C095958795EE
S11313C00A94E2F780FF36C04BA1443151F5D601AF
S11313D0D0962D913D914D915C91D39758966D91F6
S11313E07D918D919C915B970E943932F80126A5DD
S11313F037A540A951A90E943932D80150966D935E
S11314007D938D939C935397B2E0AB1213C0A301C9
S113141092010E943932F801608B718B828B938B1D
S113142009C0F80186A597A5A0A9B1A9808B918BC5
S1131430A28BB38BFFEFAF1ABF0A0C5F1F4F24E0E0
S1131440C20ED11C33E0A316B10409F0B4CFA6C672
S11314504D8D442309F44DC60F2EFAEAAF2EF5E064
S1131460BF2EF02D4E0186E0880E911C0AEE15E089
S1131470C12CD12C642E712CC3010C2C02C0959567
S113148087950A94E2F780FF3CC0D4012D913D91E9
S11314904D915C91F501608D718D828D938D0E94CB
S11314A03932D8019E962D913D914D915C91D19701
S11314B00E943932F80166A777A780AB91ABF2E0BE
S11314C0CF1229C08601000F111F000F111F0651F2
S11314D01A4F2091E6053091E7054091E8055091B7
S11314E0E9050E943932D8019E966D937D938D93C0
S11314F09C93D1971091EB05103509F4FCC51B8E14
S1131500F8C0F50180A991A9A2A9B3A9F80186A7F9
S113151097A7A0ABB1ABFFEFCF1ADF0A24E0A20E6E
S1131520B11C34E0830E911C0C5F1F4F43E0C416C2
S1131530D10409F0A1CF1B8E31C68E8D833009F4FE
S113154090C09D8D992309F48CC0A090EE050F2EB8
S1131550FAEACF2EF5E0DF2EF02D0AEE15E03E017B
S1131560A6E06A0E711C812C912C492E512C9C8E64
S11315708B8EC201082C02C0959587950A94E2F7D8
S113158080FD0BC0F601808D918DA28DB38DF80185
S113159086A797A7A0ABB1AB54C0F5E3BF1609F477
S11315A050C0A1103BC0D601D0962D913D914D91D4
S11315B05C91D397F30160817181828193810E9450
S11315C03A32D8019E962D913D914D915C91D197DF
S11315D00E943A329B01AC01F80166A777A780AB61
S11315E091ABF2E08F122DC00B8D1C8D000F111FDB
S11315F0000F111F06511A4F6091E6057091E7051F
S11316008091E8059091E9050E943A32D8019E96AE
S11316106D937D938D939C93D19723C0F601208D78
S1131620318D428D538DD8019E966D917D918D9112
S11316309C91D1970E943A32F80166A777A780ABB4
S113164091ABFFEF8F1A9F0A24E0C20ED11C0C5FEE
S11316501F4F34E0630E711C43E08416910409F0BB
S113166086CF8EE1B81631F095E3B91699F1ACE165
S1131670BA1235C0BCE1BB1209C06AEF75E086E05E
S11316800E94CD23882309F438C57CC56AEF75E030
S113169087E00E94CD23882309F431C573C5A901CD
S11316A0082E02C0559547950A94E2F740FD0AC0FA
S11316B058964D915D916D917C915B97408B518BC8
S11316C0628B738B0196149634968330910539F7A7
S11316D01B8E64C58091EB05823008F012C5109111
S11316E0EB05103529F4ED8DE1110DC51B8E46C2B5
S11316F01B8EFE8DF23009F041C2111105C02D8DF3
S113170021113CC21E8E3AC220E030E0A901609152
S1131710F6057091F7058091F8059091F9050E94FE
S11317202F33882309F4F1C41C3809F40FC240F4A0
S11317301230A1F01330A9F0113009F01FC209C012
S11317401E3809F403C208F4FEC11F3809F4FBC1B2
S113175015C23D8D311112C21E8E10C248A14460C3
S113176048A38D8D882309F4D2C4B9A1AB2FB0E06E
S1131770BDA7ACA7EAA1CE2ED12C81E090E08C01CC
S113178009A002C0000F111F0A94E2F702C0880FDB
S1131790991FEA95E2F7082B192BFD8D8F2F90E006
S11317A080239123892B09F4B4C4FD01EE0FFF1F9C
S11317B0EE0FFF1FE651FA4FAA0FBB1FAA0FBB1F64
S11317C0AE53BA4F2D913D914D915C9166A577A58D
S11317D080A991A90E9439326BA37CA38DA39EA3F7
S11317E0F601EE0FFF1FEE0FFF1FE651FA4FD60171
S11317F0AA0FBB1FAA0FBB1FAE53BA4F2D913D9129
S11318004D915C9166A577A580A991A90E94393272
S11318106FA378A789A79AA727FEEAC0E89427F8B8
S11318204CE050E068E176E082EC95E00E94D1362D
S1131830892B09F470C48091ED058130A1F40AEE7E
S113184015E023E333E34BEC51E4D80195966D9115
S11318507D918D919C9198970E949135F80165A393
S113186076A387A390A780900F0690901006A0906F
S11318701106B090120620E030E040E850E4C501C3
S1131880B4010E949135A50194010E9491354B0148
S11318905C012BA13CA14DA15EA1CA01B9010E942A
S11318A091359B01AC01C501B4010E9439324B0151
S11318B05C012FA138A549A55AA5CA01B9010E9406
S11318C091359B01AC01C501B4010E9439324B0131
S11318D05C0120E030E0A9010E942F3388230CF43E
S11318E01CC4C501B4010E9430364B015C012FA118
S11318F038A549A55AA56BA17CA18DA19EA10E94E2
S11319006A2B9B01AC01C501B40190580E94393384
S11319104B015C018091EB05833021F4B7FAB0945C
S1131920B7F8B09440900F065090100660901106DE
S11319307090120620E030E0A901C301B2010E94B8
S11319402F33882384F4B7FAB094B7F8B09477FAB5
S1131950709477F8709440920F065092100660923B
S11319601106709212060CA51DA5000F111F000F81
S1131970111F06501A4F2FA138A549A55AA5C50114
S1131980B4010E9491359B01AC016BA17CA18DA196
S11319909EA10E94393220E030E040E05FE30E94E3
S11319A09135D8016D937D938D939C931397860104
S11319B0000F111F000F111F06501A4F2BA13CA13D
S11319C04DA15EA1C501B4010E9491352FA138A596
S11319D049A55AA50E943A3220E030E040E05FE396
S11319E00E949135F8016083718382839383C6C01A
S11319F0FF8D8F2E912C08211921012B09F48FC3FF
S1131A0021EF22228091ED05813041F50AEE15E0A7
S1131A10A12CB12CC4010A2C02C0959587950A9477
S1131A20E2F780FF12C023E333E34BEC51E4D80127
S1131A3050966D917D918D919C9153970E94913513
S1131A40F801608B718B828B938BFFEFAF1ABF0A07
S1131A500C5F1F4F23E0A216B104E1F6C601880F04
S1131A60991F880F991FDC01A650BA4F6D012D9163
S1131A703D914D915C916FA178A589A59AA50E948D
S1131A8039324B015C010CA51DA5000F111F000F7D
S1131A90111F06501A4FF801208131814281538170
S1131AA06BA17CA18DA19EA10E943932A501940154
S1131AB00E946A2B4B015C01D6012D913D914D9101
S1131AC05C91F80160817181828193810E946A2B0B
S1131AD02B013C0160930F0670931006809311064E
S1131AE0909312069B01AC01C501B4010E943932E6
S1131AF04B015C01E894B7F82AE037ED43EA5BE375
S1131B00C501B4010E9451351816C4F520E030E037
S1131B1040E05FE3C501B4010E94513518160CF48E
S1131B2000C32FE632E143E85AE3C301B2010E9445
S1131B3091359B01AC01C501B4010E9451351816C1
S1131B400CF4F1C21BC0F8A1F061F8A31E581230C6
S1131B5018F428A1286028A33D8D332309F4E5C295
S1131B604CE050E068E176E082EC95E00E94D136EA
S1131B70892B09F4DCC202C01B8E1E8E48A1417061
S1131B80D42E88A180FF03C0C1018E7D03C0C10192
S1131B908E7D9C7FAE8DA111937E892B09F0C9C2E5
S1131BA0FE01729689E0DF011D928A95E9F7DD2036
S1131BB059F1B6EBEB22EF2809F0BDC28091EA059A
S1131BC0853311F08111B9C2EAEAF5E08385948581
S1131BD0A585B6858E8B9F8BA88FB98F91858085BF
S1131BE0892B8A8F6AEE75E0CE0142960E940F2DF2
S1131BF08111F1C29CE0E8E1F6E0A2ECB5E00190CD
S1131C000D929A95E1F7E7C28091530781FF26C0B0
S1131C108091EB058150833018F0E8A1E064E8A3DB
S1131C20FD8DFF2339F02E8D223021F438A1306848
S1131C3038A314C08091B305803181F48091AA0542
S1131C408150833030F448A146FF08C0406248A365
S1131C5005C088A186FD02C0806288A3EAEAF5E097
S1131C60AAEEB5E05D964D915D916D917C91909752
S1131C70448B558B668B778B12968C91818388234A
S1131C8011F088E08A8FAAEEB5E01C964D915D9123
S1131C906D917C911F97EAEAF5E04787508B618B41
S1131CA0728B4A8B5B8B6C8B7D8B99968D909D9000
S1131CB0AD90BC909C97A50194016385748585853E
S1131CC096850E942F33811103C098A195FF23C0EC
S1131CD08091B305882379F0A8A1AA2364F0A6FF14
S1131CE006C040E050E0BA010E940C1204C0B501E5
S1131CF0A4010E940C128091130690911406A091E5
S1131D001506B09116068093B5059093B605A09379
S1131D10B705B093B805B8A1B6FD0CC08091B50560
S1131D209091B605A091B705B091B8058E8B9F8BA5
S1131D30A88FB98FEAEAF5E0AAEEB5E09D968C91FA
S1131D409D97838B1A968C919185981751F04E89A3
S1131D505F89688D798D0E940C128091F4058093BF
S1131D60B305EAEAF5E09A8D8185892B8A8F809103
S1131D70F3059085981731F00E943D128091F30588
S1131D808093B2059A8D8091B205892B8A8F8091B8
S1131D90EA05843051F460910B0670910C06809131
S1131DA00D0690910E060E944205EAEAF5E0AAEEBD
S1131DB0B5E015968C911597848313968C91828344
S1131DC0EE8DE33071F58091F0058093AF058111BC
S1131DD008C010922006109221061092220610923A
S1131DE023068090200690902106A0902206B090B1
S1131DF02306A50194016091E6057091E7058091A1
S1131E00E8059091E9050E942F33882351F08092D0
S1131E10E6059092E705A092E805B092E9050E94D4
S1131E2055318091F1059091B005981769F0809330
S1131E30B0058CE0FE013696AEECB5E001900D9253
S1131E408A95E1F70E945531EAEEF5E084818093AA
S1131E50AD058081863209F446C038F48C3129F10D
S1131E608E3119F18A3059F05FC08C3509F447C0BE
S1131E70863609F450C0883209F056C03AC06AEF79
S1131E8075E08B8D0E9433238091B005FB8D8F13F9
S1131E904BC08CE0EAEFF5E0AEECB5E001900D92BA
S1131EA08A95E1F70E9455313FC08A8D81608A8FFF
S1131EB02E8D222339F0BE016E5E7F4F88E196E0BD
S1131EC00E942002BE016E5E7F4F8AEF95E00E9461
S1131ED020028CE0EAEFF5E0A2ECB5E001900D926F
S1131EE08A95E1F721C062EC75E086E00E94332315
S1131EF01BC062EC75E087E00E94332315C08CE0C0
S1131F00E8E1F6E0AAEDB5E001900D928A95E1F7DB
S1131F100E94553109C08CE0EAEDF5E0DF011D9225
S1131F208A95E9F70E9455318091EB058093AA05C3
S1131F30803509F456C0BE8DB23009F052C08130EC
S1131F4041F4BE016E5E7F4F88E196E00E9420025C
S1131F503AC081110BC08A8D81608A8FBE016E5E8A
S1131F607F4F88E196E00E9420022DC0825082308B
S1131F70E8F4E0900F06F09010060091110610911D
S1131F801206E8A1E2FB882780F98F938BA4AAA00C
S1131F90C9A02AEF35E042EC55E0BE016E5E7F4FEA
S1131FA088E196E00E9461020F900DC08A8D8460E2
S1131FB08A8F48A1BE016E5E7F4F88E196E00E9441
S1131FC0580581110AC08CE0E8E1F6E0A2ECB5E026
S1131FD001900D928A95E1F704C0813011F40E94BA
S1131FE006068091F2058093B105882309F4F3C0B5
S1131FF00E94E9168091B105833051F480917C05EB
S1132000823079F188E00E94FC310E941D1529C0BC
S1132010EAEAF5E081E08083148213821182168259
S113202011861086ECE7F5E084E687838087818754
S11320308081823099F06EEC75E080E00E94CD23BF
S1132040882309F47CC00E94553140E050E0BA0175
S113205080E00E94E41180E00E94311288E00E9436
S1132060172F1092B1058D2DB6C081E0B4C082E067
S1132070B2C084E1B0C088E1AEC084E1ACC088E104
S1132080AAC084E1A8C084E1A6C084E1A4C088E118
S1132090A2C084E1A0C084E19EC087E19CC085E128
S11320A09AC087E198C084E196C085E194C084E138
S11320B092C086E290C089E18EC084E08CC08BE13E
S11320C08AC086E188C086E186C08CE184C085E24E
S11320D082C08DE180C087E07EC08AE17CC08CE153
S11320E07AC08DE178C084E176C084E174C087E071
S11320F072C08AE170C08FE16EC087E06CC087E077
S11321006AC08EE168C08FE166C086E164C08AE17E
S113211062C080E260C081E25EC082E25CC083E2B1
S11321205AC081E258C081E256C08AE154C081E2BB
S113213052C084E250C080E14EC080E14CC087E0D0
S11321404AC08FE148C0198218A20C944706AAEE2F
S1132150B5E0AC92BCE1AB1227C00C94BE06EAEE2B
S1132160F5E0A082FCE1AF1225C00C94C20621E088
S11321702BA71AA232E039A38091ED05813009F032
S11321809DC868C84D8D4423F1F0AAEAB5E0EAEE93
S1132190F5E080E090E0242F30E081CA1091EB0557
S11321A0103509F0A6CACDCFAEE1AA120C94B90637
S11321B00C94BE06BEE1AB1611F40C94C506E1E026
S11321C0EE8F0C94B9061091EB05103509F4D4CCBC
S11321D01B8E1E8E8ECAAD960FB6F894DEBF0FBE50
S11321E0CDBFDF91CF911F910F91FF90EF90DF90C2
S11321F0CF90BF90AF909F908F907F906F905F90A3
S11322004F903F902F900895E0EBF0E080818F771E
S113221080830895239A83E08093B00084E08093C0
S1132220B100259A20914F073091500740915107F2
S11322305091520760914B0770914C0780914D0764
S113224090914E070E9439329B01AC0160E070E02E
S11322508EE793E40E943933609302017093030183
S113226080930401909305010E94041108958093C2
S1132270B300811106C0E0EBF0E080818F778083AA
S11322800895E0EBF0E080818068808308954F92A8
S11322905F926F927F928F929F92AF92BF92CF92F2
S11322A0DF92EF92FF922B013C0180904F079090B8
S11322B05007A0905107B0905207C0904B07D090A0
S11322C04C07E0904D07F0904E07A7019601C50119
S11322D0B4010E9451358823CCF46091850570E0E7
S11322E080E090E00E94E3332AE037ED43E25CE3D0
S11322F00E949135A30192010E9491352B013C016A
S1132300A70196010E945135882354F0C092890593
S1132310D0928A05E0928B05F0928C058FEF47C02E
S1132320A5019401C301B2010E942F331816E4F0F1
S113233020E030E0A901C301B2010E942F338111D2
S113234009C01092890510928A0510928B0510928B
S11323508C052DC08092890590928A05A0928B05E8
S1132360B0928C0581E023C04092890550928A0581
S113237060928B0570928C05A5019401C301B20192
S11323800E943932209102013091030140910401ED
S1132390509105010E9491350E941E3420E030E0E6
S11323A040E85FE30E943A320E94B233862FFF90E6
S11323B0EF90DF90CF90BF90AF909F908F907F90E1
S11323C06F905F904F90089590917D05911123C077
S11323D081110BC01092890510928A0510928B0509
S11323E010928C050E94041114C0803111F42D98B0
S11323F00AC02D9A9091530791FF05C0803219F4B9
S113240040E050E0BA01CB01BA010E9447110E949A
S11324103711109287050895CF92DF92EF92FF92C1
S1132420CF9390917C05923051F06A017B01C82FC3
S11324300E94E916B701A6018C2F0E94E411CF91E6
S1132440FF90EF90DF90CF900895439B02C080E40B
S1132450089580E00895439808953B9A0E942B12B2
S1132460089590917D05911107C086FF02C0439A9B
S113247001C04398109287050895CF9390917C05ED
S1132480923031F0C82F0E94E9168C2F0E9431122D
S1132490CF910895E0ECF0E0808182608083109217
S11324A0C50080E18093C400E1ECF0E0808188699C
S11324B080830895E091070121E02E0F293631F43D
S11324C020E004C090918E0594FD0FC09091060108
S11324D09217C1F3F0E0EC5DF94F8083209307017C
S11324E0E1ECF0E080818062808308951F920F9276
S11324F00FB60F9211248F939F93EF93FF938091C4
S11325000601E82FF0E0EC5DF94F90819093C6004E
S11325108F5F893609F480E080930601909107016A
S1132520891305C0E1ECF0E080818F7D8083FF9109
S1132530EF919F918F910F900FBE0F901F90189560
S11325401F920F920FB60F9211242F933F934F9324
S11325505F936F937F938F939F93AF93BF93EF9307
S1132560FF93E091C600E13259F0EE3729F0E831EB
S113257059F40E94D0057AC082E00E94FC3176C0F2
S113258088E00E94FC3172C0EE230CF05EC08E2FF6
S113259090E0FC01E458F109ED31F10508F066C062
S11325A0E953FF4F0C94BC3680E20E94FC315EC0BC
S11325B080917C0585FF5AC080E40E94FC3156C09E
S11325C09FB7F8948091A90581608093A9059FBF66
S11325D04DC081E00E941B3249C082E00E941B3240
S11325E045C084E00E941B3241C088E00E941B3237
S11325F03DC080E10E941B3239C080E20E941B3240
S113260035C080E40E941B3231C080E80E941B3236
S11326102DC081E00E94243229C082E00E9424322D
S113262025C084E00E94243221C088E00E94243224
S11326301DC080E10E94243219C080E20E9424322D
S113264015C080E40E94243211C0A091090181E0E8
S11326508A0F813809F480E090910801891731F0DC
S1132660B0E0A357B94FEC9380930901FF91EF9128
S1132670BF91AF919F918F917F916F915F914F9196
S11326803F912F910F900FBE0F901F90189580913E
S11326900901809308010895E0910001F09101017E
S11326A0CF010196909301018093000184910895D4
S11326B00E94C625892B19F082E00E94FC310895FE
S11326C0CF93C091A805CC23A9F081E080937C0529
S11326D08C2F0E94062FC150C23050F481E00E941A
S11326E0172F80E10E94053280918E0584FFFCCF74
S11326F00E941532C0918E05CC2309F4F1C0C4FFA9
S113270004C081E080937D0596C18C2F887E09F4F6
S113271064C080917C05982F937009F04DC0887235
S113272099F080917E05807C79F40E94E719ECE7AA
S1132730F5E082E084838081803231F4CC23BCF0E4
S113274092819068928313C080917C05811106C0A8
S113275091E090937E05C6FD05C065C1C6FF07C024
S113276085FD05C0ECE7F5E0928190649283C3FF98
S113277005C0807E19F480E180937C05C5FF1CC0F0
S113278086E00E94172F80917E05882384F0909123
S11327907C05903439F483FF07C0837E8260809384
S11327A07E0502C0903819F080E480937C05ECE744
S11327B0F5E0828180628283CC2364F480917C057D
S11327C0813029F4ECE7F5E082818560828380E83A
S11327D080937C0588EE0E940532C1FF43C08C2F94
S11327E08876E9F580917C05803479F480917E05C2
S11327F085FD35C084FF03C010927C0518C082FF9C
S11328002EC0886080937E052AC0882381F084FFCF
S113281026C090917E0590FF22C0803141F48091C2
S11328208605882321F088608093860518C010925D
S113283080050E94C625892B71F080917E0586FD56
S11328400AC0ECE7F5E0128288E080830E94071A50
S11328500E94FE1604C0ECE7F5E01282108282E0CA
S11328600E940532C2FF3CC080917C05807DB9F096
S113287080917F05811113C080917E0588239CF08F
S11328800E94532A8091800581FF05C0ECE7F5E0A2
S1132890928191609283897F809380051EC080918C
S11328A07E05882354F4109280050E949F250E947F
S11328B092190E9406060E94412A80917E0585FF96
S11328C008C0ECE7F5E08F778160828380E4808341
S11328D004C0ECE7F5E01282108284E00E94053225
S11328E0C0917B05CC2381F10E942D322091830578
S11328F0C0FF02C084E601C0822FC1FD865FC2FD15
S11329008A50C3FD8F5FC4FD8150893C08F088EC78
S11329108A3008F48AE030918405C5FF02C094E649
S113292001C0932FC6FD92E3CC230CF499E1281344
S113293002C0931749F0ECE7F5E08783908713868C
S11329400E9474260E94532AC0918D05CC2309F459
S113295058C00E94333290918505C0FF02C084E6BE
S113296001C0892FC1FD865FC2FD8A50C3FD8F5F00
S1132970C4FD8150893C08F088EC8A3008F48AE070
S11329809817B9F0ECE7F5E08187808181110AC0DE
S1132990EAEAF5E0438554856585768581850E945C
S11329A0E41105C0ECE7F5E084818860848310922B
S11329B08705C5FF12C080917C05803171F4809138
S11329C08605811104C082E08093860529C080FFBA
S11329D027C084608093860523C0C07C91F08091D9
S11329E07C05882311F0887361F0C091B205C6FF9D
S11329F002C0CF7B01C0C0648C2F0E943112C093EF
S1132A00B2058091A905882321F00E94D13010924B
S1132A10A90580917C058C7F71F00E94071A0BC078
S1132A20C07C19F703C0C3FDA6CEA8CE8091A9052A
S1132A30882399F3EACFCF9108957F928F929F9242
S1132A40AF92BF92CF92DF92EF92FF920F931F93B8
S1132A50CF93DF930E94601380917E05882309F44D
S1132A6001C10E94C625EC01892B51F4EAEAF5E084
S1132A70D1848085D82A83849484A584B6840BC0A9
S1132A808989182F10730E942512D82ED12A8EA45A
S1132A909FA4A8A8B9A88091530781FF03C080E22E
S1132AA00E94243290917E05992309F4DBC0809121
S1132AB07D058111D7C0CCE7D5E08D2D8073C82E5C
S1132AC00AEA15E00F2EF3E5EF2EF7E0FF2EF02DC6
S1132AD077247394ED2DE07CDE2E03C0298121112F
S1132AE0C1C090FFB2C02881322F307C09F471C07C
S1132AF092FD0FC01A8640E050E0BA0180E00E94C7
S1132B00E41180E00E9431128A818D7F84608A837F
S1132B109CC02038D1F48BE00E94172F40E050E095
S1132B20BA0180E00E94E41180E00E9431120E9408
S1132B30161780917D05811195C0CCE7D5E00E94E0
S1132B40601389818823D9F38DC0203439F40E941D
S1132B502F31811103C08A818F7D8A838A8183FF0B
S1132B6074C0F80191859923D1F081FD74C0F701F7
S1132B70808181FF08C08C8188608C83F801808506
S1132B80811114C06DC0B501A4018C2D0E94E41103
S1132B90472D60E070E080E890E40E94222BF80169
S1132BA08085882369F08A8181FD4FC08D2D0E9424
S1132BB03112472D60E070E080E89FE30E94222BF1
S1132BC08A8181FD42C080618A8382E00E94FC3157
S1132BD03CC09A85992371F191FF0EC0F80181855B
S1132BE0882341F040E050E0BA0180E00E94E41103
S1132BF07A862BC01A8629C09C7039F1F801818528
S1132C00882381F08AE00E94172FF701808181FFD9
S1132C1004C08C8188608C8305C0B501A4018C2D0F
S1132C200E94E4118A8583FF03C082E00E94FC3184
S1132C301A860BC08C8183FF08C0B501A4018C2DBA
S1132C400E94E4118C81877F8C830E9460139A8197
S1132C50911144CF07C0F80180858111F6CFB0CF20
S1132C608A81B1CFDF91CF911F910F91FF90EF90A7
S1132C70DF90CF90BF90AF909F908F907F900895FA
S1132C80DF92EF92FF920F931F93CF93DF93809184
S1132C90530783FF0AC00E948B2C882331F081E004
S1132CA080937C0587E00E94172F80917C058178B2
S1132CB039F082E00E94172F81E080937C0511C0D7
S1132CC010927C050E942F31882339F080918E0563
S1132CD0806280938E050E941D158AE091E00E9417
S1132CE0313100E010E00F2EE12CF0E7FF2EF02D43
S1132CF0CCE7D5E0D12CF0920101E092000154C060
S1132D008A3011F08D3041F50E941D1589818111A1
S1132D1058C0E02FF0E0E65FFE4F10828AE091E0B9
S1132D200E94C23010FF06C08BE00E94F22E0D2DCF
S1132D3010E03AC08881817231F089E00E94F22E5D
S1132D400D2D10E031C08AE091E00E940D060E9432
S1132D50F22E0D2D10E028C0112321F0893221F527
S1132D601D7F22C0813200F18F32F1F08832B9F038
S1132D708B33B9F00F34B8F49FE9980F9A3140F4CB
S1132D80E02FF0E0E65FFE4F805280830F5F0CC0BF
S1132D90E02FF0E0E65FFE4F80830F5F05C012E096
S1132DA003C014E001C011E00E944C138F3F09F0EE
S1132DB0A7CF0E9458130E941D158981882309F406
S1132DC09ACFDF91CF911F910F91FF90EF90DF90F9
S1132DD00895CF93DF930E945813CCE7D5E00E9467
S1132DE01D158981811107C00E94C625892BB9F759
S1132DF088818830A1F3DF91CF91089580915307A2
S1132E0082FF02C0289A01C02898E4E9F1E0809189
S1132E109001868780913E07880F8450819585872D
S1132E20EFE6F0E08081826080830895EFE6F0E0D1
S1132E3080818D7F8083E1E8F0E08081887F8160FC
S1132E40808310928E01809141078F3F49F49091C5
S1132E50A805911105C090917C05903881F404C0B7
S1132E6090917C05943059F090E00E945F2B809102
S1132E70530782FD02C0289A0895289808958091E6
S1132E80530782FFFACFF7CF1F920F920FB60F921C
S1132E9011242F933F934F935F936F937F938F935B
S1132EA09F93AF93BF93CF93DF93EF93FF9380915F
S1132EB08E018111CEC18BB1E4E9F1E09785907E5A
S1132EC08F71892B8BB98BB1837E9685892B8BB9B6
S1132ED0858586BD82E085BD81E080938E017894EE
S1132EE081A192A1892B09F0A7C0809193019091AF
S1132EF09201981709F490C0E0919301A4E9B1E01C
S1132F0087E0E89FF0011124E954FE4F9296FC9368
S1132F10EE939197828193819093890080938800A6
S1132F20808191815D969C938E935C9784815E965B
S1132F309C915E97981749F1ED018E8F90E0880F70
S1132F40991FDC01AA0FBB1FAA0FBB1FAA0FBB1F2F
S1132F508A0F9B1FDC01AF51BE4FB8A3AF8F1C96E5
S1132F608D919D910D90BC91A02DB695A7959795A7
S1132F70879588879987AA87BB878C839D83AE832F
S1132F80BF8388839983AA83BB83A4E9B1E05F9656
S1132F90CD91DC919097988980918F0189271F9614
S1132FA08C931F97488159816A817B81058004C075
S1132FB076956795579547950A94D2F750964D9311
S1132FC05D936D937C9353974C815D816E817F817A
S1132FD0058004C076956795579547950A94D2F76E
S1132FE054964D935D936D937C935797488559857B
S1132FF06A857B85058004C07695679557954795C6
S11330000A94D2F758964D935D936D937C935B9796
S113301086810E94371110C00E941617E091B301F7
S1133020F091B4018189882319F080E00E9437115E
S113303084E00E94FC310DC180918F05813011F430
S11330400E948A2EE4E9F1E0168640815181628172
S1133050738180899189A289B389840F951FA61FE2
S1133060B71F80839183A283B383078CF0A1E02DE3
S11330704485558566857785481759076A077B0710
S113308070F5C4E9D1E024E02E8744855585668532
S11330907785841B950BA60BB70B88839983AA832A
S11330A0BB83808985FF0EC0CCE9D5E088819981F6
S11330B0AA81BB810197A109B10988839983AA8355
S11330C0BB830DC0CCE9D5E088819981AA81BB81FD
S11330D00196A11DB11D88839983AA83BB83C4E98A
S11330E0D1E04C815D816E817F818C899D89AE891F
S11330F0BF89840F951FA61FB71F8C839D83AE8342
S1133100BF834485558566857785481759076A07BF
S11331107B0768F52E8528602E874485558566854E
S11331207785841B950BA60BB70B8C839D83AE838D
S1133130BF83808986FF0EC0CCE9D5E08C819D8158
S1133140AE81BF810197A109B1098C839D83AE83B0
S1133150BF830DC0CCE9D5E08C819D81AE81BF8158
S11331600196A11DB11D8C839D83AE83BF83C4E9E9
S1133170D1E0488559856A857B85888D998DAA8D8E
S1133180BB8D840F951FA61FB71F88879987AA87B1
S1133190BB874485558566857785481759076A072F
S11331A07B0768F52E8520612E87448555856685C5
S11331B07785841B950BA60BB70B88879987AA87FD
S11331C0BB878089882374F4ECE9F5E080859185D8
S11331D0A285B3850197A109B10980879187A28748
S11331E0B3870DC0ECE9F5E080859185A285B385B0
S11331F00196A11DB11D80879187A287B387809115
S11332007C05843039F4E4E9F1E096858091820507
S113321089238687E4E9F1E0848D958D0197958F64
S1133220848F892B69F41092B6011092B5018091B4
S113323093018F5F80939301863011F41092930170
S1133240E4E9F1E0968580919001892786871092C0
S11332508E01FF91EF91DF91CF91BF91AF919F913B
S11332608F917F916F915F914F913F912F910F902B
S11332700FBE0F901F9018951F920F920FB60F92CA
S113328011248F939F938BB1909190019C71837EB5
S1133290892B8BB915BC9F918F910F900FBE0F9006
S11332A01F901895EF92FF920F931F93CF93DF9384
S11332B01092900110928F01C0E0D0E00EE017E070
S11332C0EC2EFC2EF80181A990E00C2E02C09595FD
S11332D087950A94E2F780FF08C08C2F0E9411247E
S11332E090919001892B80939001F80182A990E03C
S11332F002C095958795FA94E2F780FF08C08E2D59
S11333000E941B2490918F01892B80938F01219619
S1133310C330D105A9F6DF91CF911F910F91FF9092
S1133320EF900895CF93DF930E94161780E3EAE5A8
S1133330F1E0DF011D928A95E9F7C4E9D1E083E267
S1133340FE0111928A95E9F710928D0110928C0179
S1133350109293011092920181E080939101109256
S11333608E010E94521980918F018F878BB1837EC9
S113337090919001892B8BB98BB18F7190918F01B2
S1133380892B8BB9DF91CF9108958AB18C618AB969
S1133390209A8AB1806E8AB9E1E8F0E080818F7E5C
S11333A08083808188608083E0E8F0E080818C7F86
S11333B0808380818F708083EEE6F0E08081887F57
S11333C0808314BC15BC8081816080830895CF9371
S11333D0DF93C0918C01D0918D012097A9F0EAE58B
S11333E0F1E08181816081836789708D818D928D07
S11333F09B01AC010E9491356A8B7B8B8C8B9D8BDE
S113340010928D0110928C01DF91CF9108952F922B
S11334103F924F925F926F927F928F929F92AF9260
S1133420BF92CF92DF92EF92FF920F931F93CF93AD
S1133430DF93CDB7DEB7EA970FB6F894DEBF0FBEC1
S1133440CDBF8091800580FF02C00C944E2222E003
S11334502AAF29AFE5C780918C0190918D01892B0A
S113346009F03AC38091800582FF07C00E94BD2500
S113347090938D0180938C0106C00E94C625909381
S11334808D0180938C0100918C0110918D010115A7
S1133490110511F40C944E22F0905B018F2D817074
S11334A0F0FE03C010925B01F6C0AAE5B1E09C9166
S11334B09F5F953009F0892FEAE5F1E0808390E081
S11334C0FC01EE0FFF1F9F01220F331F220F331F3A
S11334D0220F331FE20FF31FEF51FE4FF0938B01C6
S11334E0E0938A01D80150962C915097208B980133
S11334F0245F3F4F4D915D916D917D91440F551F18
S1133500661F771F440F551F661F771F440F551FF3
S1133510661F771F4193519361937193A217B30769
S113352049F7880F991FFC01EE0FFF1FEE0FFF1FD5
S1133530EE0FFF1F8E0F9F1F9C012F513E4FF8016E
S113354084859585A685B785880F991FAA1FBB1FFB
S1133550880F991FAA1FBB1F880F991FAA1FBB1F83
S1133560F90184879587A687B787D8011C966D9142
S11335707D918D919C911F970E94E133609360012E
S1133580709361018093620190936301F801268D29
S1133590378D40A151A10E9439339B01AC01609346
S11335A0640170936501809366019093670160E004
S11335B070E080EA9FE30E9439336093680170935E
S11335C0690180936A0190936B0110925C011092DF
S11335D05D0110925E0110925F018091800581FD72
S11335E002C0F3FE20C06091790170917A0180914C
S11335F07B0190917C0160937101709372018093BF
S11336007301909374019B01AC010E949135D80120
S113361052966D937D938D939C9355978F2D877FB1
S113362080935B010FC0F80162897389848995894D
S11336300E9430366093710170937201809373011C
S11336409093740100918A0110918B01D8015196D5
S11336501C92E3E5F7E0808181FF1DC0E0918C01BD
S1133660F0918D01818985FF16C022A533A544A55B
S113367055A560E070E080E89FE30E9439336093D1
S11336808501709386018093870190938801E1E01E
S1133690D8015196EC9310926D0110926E01109224
S11336A06F011092700100918C0110918D01D8016D
S11336B05A968D909D90AD90BC905D97A501940114
S11336C060E070E080E09FE30E94393369837A838D
S11336D08B839C838091800581FF55C0B2E0B093B9
S11336E06C01F801468C578C60A071A0C288D38805
S11336F0E488F588A701960169817A818B819C8190
S11337000E9491359B01AC01C301B2010E94393280
S113371069837A838B839C8320E030E0A9010E9433
S11337202F338823DCF4A5019401C501B4010E9460
S11337303A32A30192010E9491359B01AC01C70169
S1133740B6010E9439320E94303660937901709339
S11337507A0180937B0190937C01B9C129813A81DC
S11337604B815C8120936D0130936E0140936F0116
S1133770509370011092790110927A0110927B019A
S113378010927C01A4C110926C01D8015E964D91F7
S11337905D916D917C91919740937D0150937E0151
S11337A060937F017093800182FF0DC010927901B4
S11337B010927A0110927B0110927C0119861A866C
S11337C01B861C8610C00E94D62569877A878B8742
S11337D09C870E9430366093790170937A018093BC
S11337E07B0190937C0180918C0190918D010E94CA
S11337F0F7254B015C019B01AC010E9491356D835F
S11338007E838F83988700918C0110918D01F8013C
S1133810C68CD78CE0A0F1A0428853886488758850
S1133820A30192010E942F3388230CF079C02D81CB
S11338303E814F815885C301B2010E9439322981EA
S11338403A814B815C810E9491359B01AC01C70197
S1133850B6010E94393260937D0170937E0180939A
S11338607F019093800120E030E0A9010E942F3372
S1133870181694F1F2E0F0936C01D8015A96CD90A9
S1133880DD90ED90FC905D97A7019601C701B6010C
S11338900E943A32F801268D378D40A151A10E9431
S11338A091359B01AC01D80152966D917D918D911A
S11338B09C9155970E9439320E9430366093790169
S11338C070937A0180937B0190937C0180915B01DA
S11338D0886080935B01FBC029853A854B855C85B4
S11338E06D817E818F8198850E94393229813A8148
S11338F04B815C810E9491356093810170938201B8
S11339008093830190938401809275019092760153
S1133910A0927701B0927801B3E0B0936C01D7C064
S113392029853A854B855C85C301B2010E943932F1
S113393029813A814B815C810E949135A7019601CE
S11339400E943A3220E030E040E05FE30E9491358B
S11339502B013C0120E030E0A9010E9451351816EA
S11339600CF09DC0A3019201C701B6010E9451351C
S113397018160CF090C029853A854B855C856D81BD
S11339807E818F8198850E94393229813A814B81C9
S11339905C810E9491359B01AC016093810170931D
S11339A082018093830190938401C301B2010E9438
S11339B051351816F4F58092750190927601A09213
S11339C07701B0927801F801428853886488758839
S11339D0A30192016D817E818F8198850E942F338E
S11339E0811104C0F1E0F0936C0171C0A301920154
S11339F06D817E818F8198850E94393229813A8137
S1133A004B815C810E9491359B01AC0160917D01E9
S1133A1070917E0180917F01909180010E943932E2
S1133A2060937D0170937E0180937F019093800168
S1133A304EC040927D0150927E0160927F0170924F
S1133A4080014092810150928201609283017092C0
S1133A508401D8015A96CD90DD90ED90FC905D974D
S1133A60A7019601C701B6010E943A32A30192014F
S1133A700E94913529853A854B855C850E943A32AE
S1133A800E943036609375017093760180937701BC
S1133A90909378011CC0B2E0B0936C0118C01092EE
S1133AA07D0110927E0110927F011092800180911D
S1133AB0790190917A01A0917B01B0917C0180936E
S1133AC0750190937601A0937701B093780180916A
S1133AD08005886080938005E09192012E2F30E06C
S1133AE03AA729A737E0E39FF0011124E954FE4FD8
S1133AF0AAE5B1E08C918483E0918C01F0918D0171
S1133B00FC8FEB8FF68DFBA7AB8DBC8D5F96BC91C4
S1133B10BCA7EB8DFC8DF0A1FDA7AB8DBC8D919660
S1133B20BC91BEA7209168013091690140916A015E
S1133B3050916B016BA57CA58F2F9B2F0E9439326E
S1133B4069A37AA38BA39CA320E030E0A9010E947F
S1133B502F33882324F419A21AA21BA21CA2209199
S1133B6075013091760140917701509178012F8B46
S1133B70388F498F5A8F30917D013D8F40917E015E
S1133B804E8F50917F015F8F8091800188A3909127
S1133B9081019DA3A0918201AEA3B0918301BFA333
S1133BA0E0918401E8A710916C01F0916D01FB8B09
S1133BB020916E012C8B30916F013D8B40917001EF
S1133BC04E8B8091790190917A01A0917B01B09103
S1133BD07C018FA798ABA9ABBAAB2DA13EA14FA195
S1133BE05E2F6D8D7E8D8F8D98A10E942F33811154
S1133BF002C08AAD01C081E03BA42CA45DA44EA404
S1133C009EE399830F2EF3EC6F2EF02D0F2EFEE220
S1133C107F2EF02D09E3812C912C5401AEE3AD836A
S1133C20B3ECB987EEE2ED87F9E3FE878FABF32CB3
S1133C30372CE22C262CD52CC42C113009F41FC1AE
S1133C4008F496C0133009F057C1AB8DBC8D5A9659
S1133C502D913D914D915C915D976981722D832DDC
S1133C60902F0E9491356F87788B898B9A8B409027
S1133C7071015090720160907301709074012F89EA
S1133C80388D498D5A8DC301B2010E9439329B018E
S1133C90AC016F85788989899A890E945135882376
S1133CA0A4F12D8D3E8D4F8D58A16BA57CA58DA5BE
S1133CB09EA50E9439329B01AC010E943A326B01ED
S1133CC07C012F89388D498D5A8DC301B2010E9420
S1133CD03A329B01AC01C701B6010E9439336983B2
S1133CE0272E382E092F2F89388D498D5A8D2093F0
S1133CF07101309372014093730150937401FD8CF0
S1133D00EE8CDF8CC8A018AD8EC120E030E040E01E
S1133D105FE36F85788989899A890E9491359B012F
S1133D20AC01C301B2010E9439322981322D432DE5
S1133D30502F0E9491359B01AC016F2D7E2D8D2D4E
S1133D409C2D0E943932F62EE72ED82EC92E2F85AF
S1133D50388949895A89C301B2010E943932609372
S1133D6071017093720180937301909374015BC12C
S1133D70AB8DBC8D5A962D913D914D915C915D9783
S1133D806981722D832D902F0E9491356F87788BD6
S1133D90898B9A8B409071015090720160907301ED
S1133DA07090740120E030E040E05FE30E949135C0
S1133DB0A30192010E943A322981322D432D502FC2
S1133DC00E9491359B01AC016F2D7E2D8D2D9C2D74
S1133DD00E943932F62EE72ED82EC92E262F372FE1
S1133DE0482F592F6D8D7E8D8F8D98A10E9451354E
S1133DF01816A4F52D8D3E8D4F8D58A16BA57CA56D
S1133E008DA59EA50E9439329B01AC010E943A32D5
S1133E106B017C01A30192016F89788D898D9A8D44
S1133E200E943A329B01AC01C701B6010E943933AA
S1133E306983272E382E092F2F89388D498D5A8D65
S1133E402093710130937201409373015093740174
S1133E501FA9FD8CEE8CDF8CC8A0E5C0A3019201E4
S1133E606F85788989899A890E943A3260937101B1
S1133E70709372018093730190937401D4C02F895D
S1133E80388D498D5A8D6981722D832D902F0E9412
S1133E9091359B01AC016F2D7E2D8D2D9C2D0E94A3
S1133EA03932462E572E682E792E262F372F482F3B
S1133EB0592F6DA17EA18FA198A50E945135181686
S1133EC00CF0ADC02DA13EA14FA158A56F2D7E2DA4
S1133ED08D2D9C2D0E9439322F89388D498D5A8D14
S1133EE00E9439336983272E382E092FFDA0EEA0B6
S1133EF0DFA0C8A419AD97C0AB8DBC8D5A962D9187
S1133F003D914D915C915D976981722D832D902F28
S1133F100E9491356F87788B898B9A8B40907101C1
S1133F20509072016090730170907401A30192012A
S1133F300E942F3388230CF03FC020E030E040E0A3
S1133F405FE36F85788989899A890E9491359B01FD
S1133F50AC01C301B2010E9439322981322D432DB3
S1133F60502F0E9491359B01AC016F2D7E2D8D2D1C
S1133F709C2D0E9439326BAB7CAB8DAB9EAB2B89F5
S1133F803C894D895E890E9451351816ACF42F8501
S1133F90388949895A89C301B2010E943932609330
S1133FA07101709372018093730190937401FBA863
S1133FB0ECA8DDA8CEA837C02B893C894D895E8941
S1133FC06F2D7E2D8D2D9C2D0E9439329B01AC01CD
S1133FD00E943A326B017C012FA538A949A95AA93C
S1133FE0C301B2010E943A329B01AC01C701B60180
S1133FF00E9439336983272E382E092F2FA538A91B
S113400049A95AA920937101309372014093730115
S113401050937401FB88EC88DD88CE8804C0F42CAE
S1134020E52CD62CC72C2981322D432D502FC501C8
S1134030B4010E943A324B015C019B01AC016D81D9
S113404079858D859E850E94513518166CF4A501DD
S113405094016D8179858D859E850E9439326983AD
S1134060272E382E092F29C029A13AA14BA15CA1E2
S11340706F2D7E2D8D2D9C2D0E94513518163CF0F0
S11340803F2C2E2C5D2C4C2C10936C0129C02EE35C
S113409033EC4EE259E36D8179858D859E850E94CE
S11340A03A326D8379878D879E87A50194010E949A
S11340B039326983272E382E092F2B893C894D8963
S11340C05E896F2D7E2D8D2D9C2D0E9451351816E5
S11340D00CF4B3CD3F2C2E2C5D2C4C2C10936C0186
S11340E0E0918A01F0918B0181898111C1C1809194
S11340F0800583FDCDC114C00E94471180938901BE
S11341000AC01092890510928A0510928B051092AC
S11341108C051092890180918005877F80938005AA
S113412009A51AA5000F111F000F111F000F111F61
S113413049A55AA5041B150B09541E4F80918901EA
S1134140D80116968C9320916401309165014091B9
S1134150660150916701632D722D852D942D0E9467
S1134160913569837A838B839C830E9418336D8392
S11341707E838F8398876091600170916101809143
S11341806201909163010E94183369877A878B8753
S11341909C872D813E814F8158850E9439320E942F
S11341A0B2336B017C01F80171836083672B41F4A6
S11341B08091800581FF04C08160809380056EC179
S11341C020915C0130915D0140915E0150915F014D
S11341D0C501B4010E943A324B015C0129813A8144
S11341E04B815C8169857A858B859C850E943932F7
S11341F09B01AC01C501B4010E9439334B015C0140
S113420020EC31EE44E65EE40E9491350E941833BE
S11342100E94B233603DF7E07F078105910580F489
S1134220E9A5FAA5EE0FFF1FEE0FFF1FEE0FFF1F0C
S113423029A53AA5E21BF30BE954FE4F15825DC094
S1134240603A3FE073078105910588F4E9A5FAA572
S1134250EE0FFF1FEE0FFF1FEE0FFF1F49A55AA51C
S1134260E41BF50BE954FE4F51E0558327C060343D
S1134270AFE17A078105910588F4E9A5FAA5EE0F67
S1134280FF1FEE0FFF1FEE0FFF1F29A53AA5E21B2C
S1134290F30BE954FE4F32E0358310C0E9A5FAA5CB
S11342A0EE0FFF1FEE0FFF1FEE0FFF1F49A55AA5CC
S11342B0E41BF50BE954FE4F53E05583E9A5FAA539
S11342C0EE0FFF1FEE0FFF1FEE0FFF1FA9A5BAA5EC
S11342D0EA1BFB0BE954FE4F2581022E04C0969580
S11342E08795779567950A94D2F7A60102C0440F83
S11342F0551F2A95E2F7518340836115710551E0FA
S11343008507910588F4E9A5FAA5EE0FFF1FEE0FC6
S1134310FF1FEE0FFF1FA9A5BAA5EA1BFB0BE9546B
S1134320FE4F7383628313C089A59AA5880F991FD2
S1134330880F991F880F991FE9A5FAA58E1B9F0B5B
S1134340FC01E954FE4F2FEF3FEF3383228380912A
S11343509101809392018F5F863019F080939101CF
S113436002C010929101E0918C01F0918D01832D96
S1134370922DA52DB42D868F978FA0A3B1A38D81E7
S11343809E81AF81B8858093600190936101A09371
S11343906201B093630129813A814B815C81BC0144
S11343A0CD010E943932A50194010E949135609398
S11343B05C0170935D0180935E0190935F01209195
S11343C06D0130916E0140916F0150917001632D28
S11343D0722D852D942D0E942F33811123C0752CAD
S11343E0532C20E030E0A901652D722D872D942DEA
S11343F00E945135181634F4ECE7F5E084818160AD
S113440084834CC08091800582FF04C081608093C6
S1134410800544C010928D0110928C010E94A92540
S113442091E098AF9091930180919101981313C8F2
S113443035C0AB8DBC8D9E96CD90DD90ED90FC90FB
S1134440D197209185013091860140918701509147
S11344508801609171017091720180917301909152
S113446074010E949135A70196010E94913544CEB2
S1134470EB8DFC8D8189807309F443CEDACFAB8D4B
S1134480BC8D9E966D917D918D919C91D19734CEEA
S1134490EB8DFC8D8189807391F733CEEA960FB64C
S11344A0F894DEBF0FBECDBFDF91CF911F910F9166
S11344B0FF90EF90DF90CF90BF90AF909F908F9040
S11344C07F906F905F904F903F902F900895F9994F
S11344D0FECF92BD81BD81E08FBB80B50895F89475
S11344E0F999FECF92BD81BD81E08FBB80B586274F
S11344F0962F982359F06F3F29F060BD84E08FBB5D
S1134500F99A0AC084E18FBBF99A06C0882321F086
S113451060BD84E28FBBF99A789408958F929F923C
S1134520AF92BF92CF92DF92EF92FF920F931F93BD
S1134530CF93DF937C018B016A014115510509F189
S11345405A01C0E0D1E001C0C401C11108C06C2F00
S1134550CC0F770BC72FCC1FCC27CC1F01C0CD2F7E
S1134560F80161918F01C60F4C01FFEF8F1A9F0A6A
S11345700E946F2221E0A21AB10831F7EC0CFD1C55
S113458001C0C0E06C2FC7010E946F22DF91CF9160
S11345901F910F91FF90EF90DF90CF90BF90AF905D
S11345A09F908F9008958F929F92AF92BF92CF92D7
S11345B0DF92EF92FF920F931F93CF93DF937B01D0
S11345C06A014115510511F1C82FD92F5A01CB01A8
S11345D0912C882483948C010F5F1F4F0E946722C3
S11345E0911008C0292D990C330B232F221F222749
S11345F0221F01C0282D982E920E899381E0A81ABB
S1134600B108C80141F7EC0CFD1C01C0912CC70195
S11346100E94672221E030E0891511F020E030E0AB
S1134620C901DF91CF911F910F91FF90EF90DF901F
S1134630CF90BF90AF909F908F9008950F931F934A
S1134640CF93C82F8B010E94E91621E5C29FC001B8
S1134650112440E550E0B8019D5F0E948E22CF9165
S11346601F910F9108950F931F93CF93C82F8B0120
S11346700E94E9162DE0C29FC00111244CE050E0D5
S1134680B8019E5F0E948E22CF911F910F910895D1
S11346906AE080E090E00E946F2245E550E06EE021
S11346A077E081E090E00E948E2208950F931F939B
S11346B0CF93DF93CDB7DEB72C970FB6F894DEBF58
S11346C00FBECDBF082F80FF0BC085E5EAE2F2E004
S11346D0AEE0B7E005900D928A95E1F70E94482379
S11346E001FF11C0FE0131968CE0DF011D928A9515
S11346F0E9F710E0BE016F5F7F4F812F0E943323E3
S11347001F5F1830B9F702FF14C060E080E093E047
S11347100E946F2260E081E093E00E946F2260E0DB
S113472081E593E00E946F2260E082E593E00E94BD
S11347306F2203FF0AC060E08EEA93E00E946F22BA
S113474060E08FEA93E00E946F222C960FB6F894F3
S1134750DEBF0FBECDBFDF91CF911F910F910895A2
S11347601F93CF93DF93182FEB0181E5189FB001BE
S113477011247D5F40E550E0CE010E94D322892BB5
S113478039F41882BE01812F0E941E2380E001C0EB
S113479081E0DF91CF911F9108951F93CF93DF9311
S11347A0182FEB018DE0189FB00111247E5F4CE0BF
S11347B050E0CE010E94D322892B59F48CE0FE01F3
S11347C011928A95E9F7BE01812F0E94332380E07C
S11347D001C081E0DF91CF911F91089580E090E0C6
S11347E00E9467228A3069F445E550E061E070E098
S11347F08EE097E00E94D32221E0892B19F420E077
S113480001C020E0822F08950E94EE23811108C088
S113481087E00E94F22E8FEF0E9456230E94672F9A
S11348200895882321F0813021F080E1089584E007
S1134830089588E00895882321F0813021F080E8EC
S1134840089580E2089580E40895882321F081305A
S113485021F080E1089582E0089584E008952F9284
S11348603F924F925F926F927F928F929F92AF92FC
S1134870BF92CF92DF92EF92FF920F931F93CF9349
S1134880DF93C0915902C11101C0C0E1C150D09160
S11348905702DC1709F436C10C2F10E022E3C29F43
S11348A0C0011124FC01E55AFD4F6F01E688F78829
S11348B0908C818C628D738D848D958D9B01AC0160
S11348C00E943A32F601268D378D40A151A10E94F3
S11348D09135A62EB72EC82ED92E262F372F482F26
S11348E0592F6E2D7F2D892D982D0E942F338823CB
S11348F024F0EA2CFB2C9C2C8D2C82E3809FF0016D
S1134900819FF00D1124E55AFD4F8E2D9F2DA92D69
S1134910B82D828B938BA48BB58BC11101C0C0E1E0
S1134920C150DC1307C080915A02D8137CC00E9486
S1134930E71979C022E3209FC001219F900D112423
S11349409C01255A3D4F6901D2E3EC2EF12CDE9DEA
S11349508001DF9D100D1124055A1D4FC11101C0A6
S1134960C0E1C15080915A028C1302C00E94E71921
S1134970DE9DF001DF9DF00D1124E55AFD4F4688C0
S11349805788608C718CA301920162897389848930
S113499095890E942F33882309F440C0DE9DC0010D
S11349A0DF9D900D1124FC01E55AFD4F5F01628DDE
S11349B0738D848D958D9B01AC010E943A32F50173
S11349C0268D378D40A151A10E949135F60122898F
S11349D03389448955890E943A324B015C019B0119
S11349E0AC01C301B2010E945135181664F4DE9D76
S11349F0F001DF9DF00D1124E55AFD4F828A938A60
S1134A00A48AB58A0BC0DE9DF001DF9DF00D112450
S1134A10E55AFD4F428A538A648A758A68018091F7
S1134A2057028C1392CF20905702F2E32F9EC001BD
S1134A3011249C01255A3D4F7901C1E0C20DC031BA
S1134A4009F4C0E030905902D2E358C0CC2ED12CE6
S1134A50DC9D8001DD9D100D1124055A1D4FF701C9
S1134A604288538864887588F80182889388A4886A
S1134A70B588A5019401C301B2010E942F33882394
S1134A8024F5F701628D738D848D958D9B01AC01A6
S1134A900E943A32F701268D378D40A151A10E9420
S1134AA09135A30192010E943A322B013C019B01F2
S1134AB0AC01C501B4010E945135181634F4F80153
S1134AC0428A538A648A758A2C2EDC9DF001DD9D0E
S1134AD0F00D1124E55AFD4F26893789408D518DFB
S1134AE062897389848995890E942F33811101C059
S1134AF02C2ECF5FC03109F4C0E07801C311A6CFDA
S1134B0020925702DF91CF911F910F91FF90EF9068
S1134B10DF90CF90BF90AF909F908F907F906F90D9
S1134B205F904F903F902F90089510925A021092E8
S1134B30590281E0809358021092570208958CE143
S1134B40EBE3F2E0DF011D928A95E9F70E949525D7
S1134B50089580915A0290915902981769F091E052
S1134B60980F903109F490E020915702821302C00B
S1134B709093570290935A0208958091590222E328
S1134B80829FC0011124855A9D4F089580915A0235
S1134B9090915902981739F022E3829FC0011124A1
S1134BA0855A9D4F089580E090E00895E0915A025F
S1134BB0EF5FE03109F4E0E0809159028E1759F07B
S1134BC082E3E89FF0011124E55AFD4F628973895D
S1134BD084899589089560E070E0CB01089581E0AF
S1134BE020915A0290915802291380E00895AF92BF
S1134BF0BF92CF92DF92EF92FF920F931F93CF93C6
S1134C00DF93EC011AA5ABA4ECA40DA5898980FF60
S1134C101AC06091840570E080E090E00E94E33364
S1134C202AE037ED43E25CE30E9491359B01AC013D
S1134C30612F7A2D8E2D902F0E949135162FA72E3D
S1134C40E82E092F2FC082FD19C06091830570E002
S1134C5080E090E00E94E3332AE037ED43E25CE336
S1134C600E9491359B01AC01612F7A2D8E2D902FDE
S1134C700E949135162FA72EE82E092FBEA0CFA093
S1134C80D8A4F9A42B2D3C2D4D2D5F2D612F7A2D09
S1134C908E2D902F0E945135181624F41B2DAC2C08
S1134CA0ED2C0F2D20E030E040E85FE3612F7A2DFA
S1134CB08E2D902F0E94513518161CF4DA2DCE2D0E
S1134CC004C010E0D0E0C0E80FE3612F7D2F8C2FEB
S1134CD0902FDF91CF911F910F91FF90EF90DF9074
S1134CE0CF90BF90AF9008955F926F927F928F9212
S1134CF09F92AF92BF92CF92DF92EF92FF920F9367
S1134D001F93CF93DF9310915A02509059020F2EA4
S1134D10F9E99F2EF02D0F2EF6E78F2EF02D0F2E92
S1134D20F6E97F2EF02D0F2EFEE76F2EF02D0F2EBD
S1134D30F2E3CF2EF02D74C0C12FD0E0CC9EC00181
S1134D40CD9E900D1124855A9D4F0E94F725062F64
S1134D50F72EE82ED92E262F372F482F592F692DBD
S1134D60782D872D962D0E942F338823CCF4CC9E4A
S1134D70C001CD9E900D11249C01255A3D4F59012F
S1134D80292D382D472D562D692D782D872D962DBB
S1134D900E949135F501668B778B808F918F18C0B7
S1134DA0CC9EC001CD9E900D11249C01255A3D4FEF
S1134DB05901202F3F2D4E2D5D2D602F7F2D8E2DDF
S1134DC09D2D0E949135F501668B778B808F918F95
S1134DD0CC9EF001CD9EF00D1124E55AFD4F82A02A
S1134DE093A0A4A0B5A0A501940166897789808DBC
S1134DF0918D0E94513518165CF4CC9EF001CD9E25
S1134E00F00D1124E55AFD4F868A978AA08EB18E43
S1134E101F5F103109F410E0902E8F2C7E2C6D2C26
S1134E2015118ACF892D982DA72DB62D8093530265
S1134E3090935402A0935502B0935602DF91CF9100
S1134E401F910F91FF90EF90DF90CF90BF90AF90A4
S1134E509F908F907F906F905F9008952F923F92D4
S1134E604F925F926F927F928F929F92AF92BF9276
S1134E70CF92DF92EF92FF920F931F93CF93DF9322
S1134E80CDB7DEB7C654D1090FB6F894DEBF0FBE56
S1134E90CDBF25967FAF6EAF259720905902A22CE7
S1134EA0B12C22E32A9DA0012B9D500D1124BA019F
S1134EB0655A7D4F21967FAF6EAF2197FB0111920A
S1134EC02A95E9F72596EEADFFAD25972085FB01E0
S1134ED0218B2596EEADFFAD2597448155816681E2
S1134EE077812196EEADFFAD219746A757A760AB1A
S1134EF071AB21FF0AC02CE0ECE9F5E0DE011D9660
S1134F0001900D922A95E1F76DC22CE0EBE3F2E0FB
S1134F10DE011D9601900D922A95E1F763C2E9AD79
S1134F20FAAD6191719181919191FAAFE9AFEBADD5
S1134F30FCAD2191319141915191FCAFEBAF2DAB7F
S1134F403EAB4FAB58AF0E9491350E945E35F401E1
S1134F5061937193819391934F01F60101911191A2
S1134F60219131916F01601B710B820B930B8B01AB
S1134F709C013AF4002711279801061B170B280BF4
S1134F80390BF10101931193219331931F01F7011F
S1134F904080518062807380401651066206730619
S1134FA010F428013901F701408251826282738230
S1134FB00E94E3332DA93EA94FA958AD0E9439336D
S1134FC0EDADFEAD6193719381939193FEAFEDAF1F
S1134FD020E030E0A9010E942F33882354F489A9EA
S1134FE00E941B242796EEADFFAD27979081892B55
S1134FF08083F9A9FF5FF9ABF33009F090CF82E326
S11350008A9DF0018B9DF00D1124E55AFD4F848596
S11350109585A685B785892B8A2B8B2B09F4DEC150
S1135020CE0149960E949D2B22E32A9D80012B9D4F
S1135030100D1124055A1D4FF801668F778F80A338
S113504091A3BE01675E7F4F86E297E00E94042C25
S1135050F801628F738F848F958FBE01675E7F4FD7
S11350608AE197E00E94042CF80166A377A380A745
S113507091A7118910FF0DC022E32A9DF0012B9DF9
S1135080F00D1124E55AFD4F62A773A784A795A7D5
S113509022C02596EEADFFAD259720813181428156
S11350A0538182E38A9DF0018B9DF00D1124E55A12
S11350B0FD4F22A733A744A755A713FF0CC07F01B8
S11350C0668D778D80A191A10E949135F70162A729
S11350D073A784A795A79091590280915A029817B3
S11350E011F011FF11C082E38A9DF0018B9DF00D38
S11350F01124E55AFD4F128A138A148A158A12A2C2
S113510013A214A215A2D8C007E412E01E01F5E20E
S11351102F0E311C410119AA1AAA1BAA1CAAF801B4
S1135120C190D190E190F1908F012396EEADFFAD47
S1135130239741905190619071902396FFAFEEAF09
S11351402397A3019201C701B6010E9491359B01E7
S1135150AC0169A97AA98BA99CA90E94393269ABCF
S11351607AAB8BAB9CABA7019601C301B2010E9441
S11351703932F10161937193819391931F012396C5
S11351802EAD3FAD23972815390549F62FEE3FEF95
S11351904FE75FE369A97AA98BA99CA90E945135BD
S11351A018166CF482E38A9DF0018B9DF00D112496
S11351B0E55AFD4F12A213A214A215A27DC02FEE30
S11351C03FEF4FE75FEB69A97AA98BA99CA90E94DD
S11351D02F3388238CF482E38A9DF0018B9DF00D9C
S11351E01124E55AFD4F89E996E7A6E9BEE782A3B3
S11351F093A3A4A3B5A360C0CE0185960E949D2B62
S1135200BE016B5D7F4F86E297E00E94042C6B0128
S11352107C0129A93AA94BA95CA960E070E080E867
S11352209FE30E94393220E030E040E05FE30E94D7
S113523091350E9430362B013C0120914307309177
S113524044074091450750914607C701B6010E94A3
S11352509135A30192010E9491356B017C01A30158
S1135260920160E070E080E89FE30E9439329B0184
S1135270AC01C701B6010E943933E62EF72E082F80
S1135280192F20E030E0A9010E942F33882324F451
S1135290E12CF12C00E010E082E38A9DF0018B9D6B
S11352A0F00D1124E55AFD4F4E2D5F2D602F712F07
S11352B042A353A364A375A382E38A9DF0018B9D4B
S11352C0F00D1124E55AFD4F818981FD89C0219695
S11352D08EAD9FAD21970E94F7256B017C01409014
S11352E05302509054026090550270905602A301EC
S11352F092010E9451351816A4F482E38A9D80011C
S11353008B9D100D1124055A1D4FA3019201C30159
S1135310B2010E949135F801668B778B808F918F53
S113532013C082E38A9D80018B9D100D1124055AC0
S11353301D4FA7019601C701B6010E949135F801DE
S1135340668B778B808F918F82E38A9DF0018B9D92
S1135350F00D1124E55AFD4F42A053A064A075A09E
S1135360A301920166897789808D918D0E945135C0
S1135370181664F482E38A9DF0018B9DF00D1124CC
S1135380E55AFD4F468A578A608E718EC092530249
S1135390D0925402E0925502F09256028CE0FE0143
S11353A07996A7E4B2E001900D928A95E1F78CE03A
S11353B0FE013196ABE3B2E001900D928A95E1F7DC
S11353C080915802809359028F5F803109F480E004
S11353D0809358020E942F2481E039C080E037C0B6
S11353E081E035C089AF9AAF2EE037E03CAF2BAFF8
S11353F0AE014F5F5F4F4A016E015DE0C50ED11CE7
S113540062E3269EC0011124FC01E55AFD4F1F01F1
S11354109E01275E3F4F23963FAF2EAF23973EAFAB
S11354202DAF10E022E32A9DC0012B9D900D112485
S1135430855A9D4F7C013CE0E30EF11CAC01405FBA
S11354405F4F27965FAF4EAF279719AB68CDCA5B06
S1135450DF4F0FB6F894DEBF0FBECDBFDF91CF9103
S11354601F910F91FF90EF90DF90CF90BF90AF907E
S11354709F908F907F906F905F904F903F902F9070
S11354800895ECE9F5E0ABE3B2E088EA95E04191F8
S11354905191619171914D935D936D937D93E81753
S11354A0F907A9F708950E94E71980915A02809399
S11354B057020E942F2408954F925F926F927F9219
S11354C08F929F92AF92BF92CF92DF92EF92FF9210
S11354D00F931F93CF93DF93DC01FB01C081D0E0D6
S11354E0FC01EC0FFD1F90819D3229F4EF012296FF
S11354F0918101E00BC09B3229F02196CA0FDB1F7A
S113550000E004C0EF012296918100E080E020E0F9
S113551010E0412C512C320131E0FE0190539A30BD
S113552010F52F5F2930D8F4811111505301420135
S1135530880C991CAA1CBB1C880C991CAA1CBB1C9B
S1135540840C951CA61CB71C880C991CAA1CBB1C9B
S113555024013501490E511C611C711C09C08111C3
S113556007C01F5F05C09E3F31F4811104C0832F23
S113557090812196D2CF222309F452C06A017B0183
S11355805D01C301B2010E94E1332B013C0120E023
S113559030E0A9010E942F33882351F11F3F6CF49E
S11355A02AE037ED43E25CE3C301B2010E94913586
S11355B02B013C011E5F1F3F9CF311235CF42DEC77
S11355C03CEC4CEC5DE3C301B2010E9491352B012C
S11355D03C010EC0111664F420E030E040E251E4D6
S11355E0C301B2010E9491352B013C011150A1F776
S11355F0002351F077FA709477F87094F6014082A2
S113560051826282738205C0F601408251826282B5
S11356107382CA19DB09C150F701C08381E001C05C
S113562080E0DF91CF911F910F91FF90EF90DF9079
S1135630CF90BF90AF909F908F907F906F905F902E
S11356404F900895FF920F931F93CF93DF93F42EFF
S113565020E030E040EA51E40E9491350E94183382
S11356600E94B2336115710521F120917D0521114C
S113567020C0EB010CE715E005C02197F8018181FA
S1135680811117C0F11003C00E941D1506C00E94AD
S11356906013F801828181FD0CC0FFEF20E782E0F6
S11356A0F15020408040E1F700C00000C130D10536
S11356B021F7DF91CF911F910F91FF9008950097EB
S11356C041F0EFE9FFE03197F1F700C000000197E6
S11356D0C1F708954F925F926F927F928F929F923B
S11356E0AF92BF92CF92DF92EF92FF924B015C0197
S11356F069017A01A5019401C501B4010E949135A3
S11357004B015C01A7019601C701B6010E949135C6
S11357109B01AC01C501B4010E943A320E943036AB
S1135720FF90EF90DF90CF90BF90AF909F908F90BD
S11357307F906F905F904F9008954F925F926F9219
S11357407F92AF92BF92CF92DF92EF92FF920F932C
S11357501F93CF93DF93EC015C018CE0A80EB11C86
S11357608E01412C512C3201F801C190D190E1906D
S1135770F1908F0120E030E0A901C701B6010E9439
S11357802F33882371F0A7019601C701B6010E9447
S113579091359B01AC01C301B2010E943A322B0145
S11357A03C010A151B0501F7C301B2010E94303602
S11357B02B013C019B01AC0160E070E080E89FE3B9
S11357C00E9439336B017C01A701960168817981BC
S11357D08A819B810E9491356993799389939993E6
S11357E0CA15DB0589F7C301B201DF91CF911F917F
S11357F00F91FF90EF90DF90CF90BF90AF907F908C
S11358006F905F904F9008956F927F928F929F92C6
S1135810AF92BF92CF92DF92EF92FF920F931F93BA
S1135820CF93DF93EB018C017B018CE0E80EF11C3C
S11358300F2EF9E97F2EF02D0F2EF6E7CF2EF02D47
S11358400F2EF6E9DF2EF02D0F2EFEE76F2EF02D32
S113585089909990A990B99020E030E0A901C50100
S1135860B4010E942F338823D9F0A5019401F801D3
S113587060817181828193810E9439334B015C0183
S1135880E894B7F8272D3C2D4D2D562DC501B401B4
S11358900E945135181624F0782CC92CDA2C6B2C64
S11358A00C5F1F4FCE15DF0599F6672D7C2D8D2DCE
S11358B0962DDF91CF911F910F91FF90EF90DF9084
S11358C0CF90BF90AF909F908F907F906F900895EE
S11358D0EBE6F0E08081897E8083E8E6F0E0808179
S11358E08E7F8083089584B1897E84B985B1866171
S11358F085B98091530783FF0BC0EBE6F0E080810C
S113590086618083E8E6F0E0808181608083089589
S11359100E94682C0895EF92FF920F931F93CF93E8
S1135920DF9313B116718091530786FD1BC086E186
S1135930182718C0C0E0D0E000E0EE24E394F12C76
S11359408C2F0E942524812341F0C7010C2E02C014
S1135950880F991F0A94E2F7082B2196C330D105CA
S113596079F703C01111E6CF00E0802FDF91CF91CA
S11359701F910F91FF90EF9008951F920F920FB611
S11359800F9211242F933F934F935F936F937F93C1
S11359908F939F93AF93BF93EF93FF9380917C0575
S11359A0813049F08091A805811105C00E94D0057D
S11359B081E00E940F32FF91EF91BF91AF919F91CF
S11359C08F917F916F915F914F913F912F910F90A4
S11359D00FBE0F901F901895CF93DF930E949131C3
S11359E08823D1F0ECE7F5E081E08383808188307F
S11359F061F40E94FC31CCE7D5E00E941D15898139
S1135A0081110AC088818111F8CF0E94D00582E0FB
S1135A100E940F320E941D15DF91CF9108950F93BC
S1135A201F93CF93DF93EC018B01FB018485958554
S1135A30A685B78588839983AA83BB838885846078
S1135A4088878091530785FF06C0CB018E960E94FC
S1135A509131811115C0BE01C8018E960E942002A9
S1135A60C0917C05C1110EC00E94C625892B59F036
S1135A7080E280937C050E94071A0E94FE1603C0F0
S1135A80CFE001C0C0E08C2FDF91CF911F910F9127
S1135A900895CF93DF93EC018881882331F0219618
S1135AA00E945A1289918111FBCFDF91CF91089501
S1135AB0CF93DF93EC012196FC018491882339F084
S1135AC00E945A12FE01849121968111F9CFDF912F
S1135AD0CF910895CF93DF93843690F09DEC899F06
S1135AE0912D1124969596959695392F330F232F42
S1135AF0220F220F230F821BD0E3D80F892F01C05E
S1135B00D0E08A30F8F09DEC899F912D1124969570
S1135B1096959695392F330F232F220F220F230F9B
S1135B20C82FC21BC05D80E3890F0E945A12CC2388
S1135B3019F08C2F0E945A12DD2341F08D2F0E9400
S1135B405A1204C0805D0E945A12F6CFDF91CF91A1
S1135B5008958F929F92AF92BF92CF92DF92EF926D
S1135B60FF920F931F93CF93DF93CDB7DEB72D979B
S1135B700FB6F894DEBF0FBECDBF6B017C01042FBE
S1135B8020E030E0A9010E942F3388233CF48DE209
S1135B900E945A12F7FAF094F7F8F094023088F061
S1135BA0102F20E030E048EC52E4C701B6010E9417
S1135BB091356B017C011250123098F7802F81705F
S1135BC001C0802F882351F020E030E040E251E40E
S1135BD0C701B6010E9491356B017C0120E030E0E1
S1135BE040E05FE3C701B6010E943A320E94AB3342
S1135BF0611571058105910519F120E00F2EFAE078
S1135C008F2E912CA12CB12CF02D11E0120FEE242B
S1135C10E394F12CEC0EFD1EE20EF11CA50194019F
S1135C200E949A36605DF7016083622F732F842F80
S1135C30952F212F611571058105910531F701C05B
S1135C4010E0101760F480E3E1E0F0E0EC0FFD1FDA
S1135C50E10FF11D80831F5F0113F6CF02C0011312
S1135C6007C011E0100F80E3FE01E00FF11D8183F6
S1135C70112369F0011303C08EE20E945A12FE013F
S1135C80E10FF11D80810E945A12115099F72D964F
S1135C900FB6F894DEBF0FBECDBFDF91CF911F9139
S1135CA00F91FF90EF90DF90CF90BF90AF909F90B7
S1135CB08F9008952091530720FF0AC02BE832E407
S1135CC041E25DE30E94913544E00E94A92D0895CC
S1135CD043E00E94A92D0895109263079091530701
S1135CE099231CF090E290936307882331F09091FC
