S00E00004D794752424C2E7372656329
S11300000C9416020C9433020C9433020C94C32EF9
S11300100C9479360C9433020C9433020C9433020E
S11300200C9433020C9433020C9433020C94B517E1
S11300300C9433020C9433020C9433020C94330268
S11300400C94AD190C9433020C9430130C94F212EA
S11300500C9433020C9433020C9433020C94330248
S11300600C9433020C9433024907490749074907A2
S11300702C07B510B510B510B510B5102107B51083
S1130080B510B510B510B510B51072077207720728
S113009091079107B510B510B510B510B510B5108E
S11300A02107B5102107B510B510B510B510B5105E
S11300B0B510B5104907B510BB07B510B5109707B3
S11300C0B510B510B510B510B5109707B510B5102B
S11300D0B5102C07AF07AF07AF07AF07AF07AF07E0
S11300E0B510B507B510B510B510B510B510B510ED
S11300F0B510B510B510B510B510B510B510B510D4
S1130100B510B510B510B5104F07B510B510B51032
S1130110B510B510B510B510B510B510780778073F
S113012021078B078B07E407E407E407F307F307CA
S1130130F307CF10CF100A080A08CF10CF10CF1042
S1130140CF10CF10CF10CF10CF10CF10CF10CF10B3
S1130150CF10CF10CF10CF10CF10CF10CF10CF10A3
S1130160CF10E4073F08D310D3104908560863089A
S11301707008D3107408D3108208D3108C08960822
S1130180A008D310D310D310B008BD08CA08641354
S113019068137013C613C613C613C613C613C61347
S11301A0C613C613C61379137D13811385138913DC
S11301B08D1391139513C61399139D13A113A513AE
S11301C0A913AD13C613B113CC24D224D524DA2435
S11301D0DF24ED24FB24AF25AF25AF250C250F2507
S11301E018252125AF25AF25AF25AF25AF25AF2590
S11301F03125412551255F2562256B2574257B25F5
S1130200AF25AF2584258F259A255C33613366336A
S11302106B33703375337A337F33843389338E335E
S1130220084AD73B3BCE016E84BCBFFDC12F3D6C59
S113023074319ABD56833DDA3D00C77F11BED9E4BF
S1130240BB4C3E916BAAAABE000000803F05A84C9F
S1130250CDB2D44EB93836A9020C50B9918688086B
S11302603CA6AAAA2ABE000000803F0000007A43F0
S113027000007A4300007A430000FA430000FA4386
S11302800000FA4300A00C4700A00C4700A00C4754
S1130290000048C3000048C3000048C30A00001916
S11302A0010AD7233C6F12033B00007A440000008C
S11302B00000000000C8410000FA43FA000000807A
S11302C03F5B4F50543A005B5645523A312E3168E9
S11302D02E32303139303832353A00244E00204D38
S11302E00020470020530020460020540033382EBD
S11302F0005B47433A47005B544C4F3A005B473935
S1130300323A003330003238005B47005B505242CF
S11303103A005B484C503A242420242320244720CC
S1130320244920244E2024783D76616C20244E7884
S11303303D6C696E6520244A3D6C696E65202453CA
S11303404C50202443202458202448207E2021205F
S11303503F206374726C2D785D0D0A000D0A47729C
S1130360626C20312E3168205B27242720666F724F
S11303702068656C705D0D0A00536C656570696E6C
S11303806700526573746F72696E67207370696E6B
S1130390646C6500526573746F72696E672064657E
S11303A06661756C74730050676D20456E6400431C
S11303B06865636B204C696D697473004368656399
S11303C06B20446F6F720044697361626C656400F2
S11303D0456E61626C65640043617574696F6E3A61
S11303E020556E6C6F636B656400272448277C2757
S11303F024582720746F20756E6C6F636B005265F0
S113040073657420746F20636F6E74696E75650014
S11304105B4D53473A00414C41524D3A000D0A009E
S11304206572726F723A006F6B0D0A0011241FBE61
S1130430CFEFD8E0DEBFCDBF11E0A0E0B1E0E8E24D
S1130440FDE702C005900D92A230B107D9F727E06D
S1130450A2E0B1E001C01D92A436B207E1F70E9408
S113046035020C94923E0C9400000E94C6120E9425
S11304700A260E94361A0E9456368CE0ECE9F5E012
S1130480DF011D928A95E9F7789410927C05CCE7F8
S1130490D5E00F2EF1E1DF2EF02D14E60F2EF0E95A
S11304A0EF2EF5E0FF2EF02D0CE08881FE019D2D4E
S11304B011929A95E9F788831F8318871987D701C2
S11304C0E02F1D92EA95E9F710928F0510928E05A0
S11304D01092A80510927B0510928D050E94D713E7
S11304E00E9470060E9486110E94A9120E94792E11
S11304F00E94B2320E94A5270E94031A0E94472C30
S11305000E9482060E9496330E94F216CECFEF928A
S1130510FF920F931F93CF93DF938C017B01809104
S1130520530785FF07C080917C05803239F0C801EC
S11305300E940E3180917C05823019F1CCE7D5E020
S11305400E94AD15898181111CC00E94F527882362
S113055019F00E94E813F4CFB701C8010E943429AE
S113056081110FC08091530781FF0BC0F701808573
S113057084FF07C0448155816681778180E10E94B0
S11305808812DF91CF911F910F91FF90EF90089502
S11305902F923F924F925F926F927F928F929F928F
S11305A0AF92BF92CF92DF92EF92FF920F931F937D
S11305B0CF93DF93CDB7DEB7E2970FB6F894DEBFE3
S11305C00FBECDBF9AAB89AB788B6F875E874D87A3
S11305D03901ED82FE820F831887898AD12CCC0CD5
S11305E0DD1CCC0CDD1CCA018C0D9D1D9E8B8D8BDE
S11305F0D901AC0DBD1DBEA7ADA72D903D904D906A
S11306005C90FC012081318142815381C201B1019E
S11306100E94EE396F8B788F898F9A8F0A2D10E0A4
S1130620000F111F000F111F8D859E85800F911FD4
S11306309C8F8B8FD301A00FB11FB8ABAFA78D9048
S11306409D90AD90BC90FC01208131814281538109
S1130650C501B4010E94EE396D8F7E8F8F8F98A3F0
S1130660D201C101B05889839A83AB83BC83D5017D
S1130670C401B05889879A87AB87BC87E9A9FAA9CE
S1130680EC0DFD1D2F89388D498D5A8D6081718146
S1130690828193810E94ED396B017C01E9A9FAA959
S11306A0E00FF11F2D8D3E8D4F8D58A1608171811A
S11306B0828193810E94ED394B015C01A70196016F
S11306C069817A818B819C810E94453D2B013C018B
S11306D0A501940169857A858B859C850E94453D99
S11306E09B01AC01C301B2010E94EE392B013C0114
S11306F0A501940169817A818B819C810E94453D89
S11307004B015C01A701960169857A858B859C85DF
S11307100E94453D9B01AC01C501B4010E94ED3925
S1130720A30192010E946D3A4B015C0128968FADA2
S113073028978823A9F02DEB37E346E055EBC50154
S1130740B4010E94053D8823FCF02BED3FE049EC09
S113075050E4C501B4010E94ED394B015C0114C0A1
S11307602DEB37E346E055E3C501B4010E94E33ABB
S1130770181654F02BED3FE049EC50E4C501B401E8
S11307800E94EE394B015C01C0904707D0904807A6
S1130790E0904907F0904A072D813E814F815885AA
S11307A0CA01B9010E94EE392B013C01A70196014F
S11307B0C301B2010E94ED39A70196010E94453D93
S11307C00E94E43D6B017C0120E030E040E05FE307
S11307D0C501B4010E94453D2D813E814F8158855C
S11307E00E94453D9F77A70196010E94ED3A0E9421
S11307F0D23B0E94663B6B017C013B016115710594
S113080009F488C1AF85B88918961C9113FF18C0E4
S113081080E090E00E94953B9B01AC01EF85F88954
S113082060817181828193810E94453DAF85B88941
S11308306D937D938D939C931397177F18961C93B8
S1130840B60180E090E00E94953B6B017C019B0126
S1130850AC01C501B4010E94ED3A69A77AA78BA740
S11308609CA7B9898B2E912C880C991C880C991CF7
S11308704D845E84480C591CE9A9FAA9E80DF91DB8
S1130880D2012D913D914D915C9160817181828164
S113089093810E94ED39A70196010E94ED3A698B7C
S11308A07A8B8B8B9C8B29A53AA54BA55CA5CA0199
S11308B0B9010E94453D9B01AC0160E070E080E01D
S11308C090E40E94ED396B017C012BEA3AEA4AE29A
S11308D05EE369A57AA58BA59CA50E94453D4B01C5
S11308E05C0120E030E040E850E4C701B6010E941A
S11308F0EE399B01AC01C501B4010E94453D69A3D9
S11309007AA38BA39CA320E030E040E05FE3C7011F
S1130910B6010E94453D6DA37EA38FA398A7B2E0C4
S11309206B16710408F4F6C010E022242394312CD1
S1130930C984DA84EB84FC841C3008F044C0A70129
S113094096016DA17EA18FA198A50E94453D4B0102
S11309505C0129813A814B815C8169A17AA18BA1D7
S11309609CA10E94453DA50194010E94EE39962E5A
S1130970A72EB82E092F29813A814B815C816DA164
S11309807EA18FA198A50E94453D69837A838B83BC
S11309909C83A701960169A17AA18BA19CA10E94C5
S11309A0453D9B01AC0169817A818B819C810E94C8
S11309B0ED3969837A838B839C831F5FC92CDA2C7E
S11309C0EB2CF02E66C0B10180E090E00E94953BD4
S11309D029A53AA54BA55CA50E94453D6B017C0168
S11309E00E94E83A6D837E838F839887C701B6019E
S11309F00E94D63D69877A878B879C87EDA5FEA5E3
S1130A00C080D180E280F380F7FAF094F7F8F09494
S1130A10AFA5B8A98D909D90AD90BC90A70196010B
S1130A206D817E818F8198850E94453D69837A839B
S1130A308B839C83A501940169857A858B859C852C
S1130A400E94453D9B01AC0169817A818B819C8127
S1130A500E94EE3969837A838B839C83A701960174
S1130A6069857A858B859C850E94453D6B017C0157
S1130A70A50194016D817E818F8198850E94453DF9
S1130A809B01AC01C701B6010E94ED396B017C01E9
S1130A9010E02F89388D498D5A8D69817A818B8137
S1130AA09C810E94EE39ED89FE8960837183828383
S1130AB093832D8D3E8D4F8D58A1C701B6010E94A1
S1130AC0EE39AB8DBC8D6D937D938D939C93139771
S1130AD029893A894B895C89F2016081718182811B
S1130AE093810E94EE39D2016D937D938D939C93F3
S1130AF013976F8578898D859E850E9487028091E2
S1130B007D0581110DC0BFEF2B1A3B0A62147304DB
S1130B1009F012CF6F85788989A99AA90E94870262
S1130B20E2960FB6F894DEBF0FBECDBFDF91CF9132
S1130B301F910F91FF90EF90DF90CF90BF90AF90F7
S1130B409F908F907F906F905F904F903F902F90E9
S1130B500895CF92DF92EF92FF9220917C0522308C
S1130B6049F06B017C010E945A1740E0C701B601AD
S1130B700E94282DFF90EF90DF90CF9008950E945F
S1130B806E2E84E00E94F22E83E00E94F22E0E94D8
S1130B90AD1580917D05811106C00E9482060E94D8
S1130BA0472C0E94792E0895DF92EF92FF920F93C3
S1130BB01F93CF93DF9320917C05223009F45FC00B
S1130BC0D42E7B018C010E945A1780917D058111DE
S1130BD058C010928105D3FA882780F90E94A03268
S1130BE00E94B832882351F084E00E94C3390E94E5
S1130BF0AD1580E00E94A03282E046C0B701C80172
S1130C000E94870281E080938F0582E00E948037F2
S1130C10CCE7D5E00E94AD158981811134C088816B
S1130C208111F8CF80918F05813081F4D4FE0AC000
S1130C308CE0ECE9F5E0A0E9B5E001900D928A952D
S1130C40E1F707C085E00E94C33903C081E08093C7
S1130C50810510928F0580E00E94A0320E94AD159C
S1130C600E94031A0E94A5270E94472C0E94BC34AC
S1130C7081E090918105911107C080E005C080E07A
S1130C8003C082E001C082E0DF91CF911F910F91F8
S1130C90FF90EF90DF90089580918E0584FD1FC032
S1130CA080E10E9480370E9480110E94A7128091E7
S1130CB07C05982F9C7221F490918005967079F0B0
S1130CC0843041F48091A805811107C086E00E9418
S1130CD0C33903C083E00E94C3390E948717089573
S1130CE080E4EAEAF5E0DF011D928A95E9F76EEC0B
S1130CF075E080E00E945B24811103C087E00E94BC
S1130D00263308956CE975E082EC95E00E94FA368A
S1130D1008952F923F924F925F926F927F928F929B
S1130D209F92AF92BF92CF92DF92EF92FF920F9376
S1130D301F93CF93DF93CDB7DEB7AD970FB6F8947B
S1130D40DEBF0FBECDBF8C018AE3EAEEF5E0DF0122
S1130D501D928A95E9F78BE0EAEAF5E0ABEEB5E09F
S1130D6001900D928A95E1F7F8018081843211F0A7
S1130D700C941F11EAEEF5E081E08183128283E096
S1130D808983F1E0F8A3212C312CE12CF12C1F8E66
S1130D901D8E1E8ECC24C394D12C0F2EF1E68F2EE3
S1130DA0F3E09F2EF02D1C8F0B8F22C29FEB910F2F
S1130DB09A3110F00C94B1108F5F8983AE014E5FAD
S1130DC05F4FBE016F5F7F4F8B8D9C8D0E94622CA5
S1130DD0882311F40C94B3104A805B806C807D806E
S1130DE0C301B2010E94283E0E94663BA62E70E019
S1130DF080E090E00E94973B9B01AC01C301B201EB
S1130E000E94ED3920E030E048EC52E40E94453D78
S1130E100E94B23D0E94663B862F972F173421F023
S1130E201D3409F4C1C01DC14A2C512C2FE54216B2
S1130E30510410F00C94B510F201EC5CFF4F0C94CB
S1130E40703E009711F00C9423113E8D332311F45E
S1130E500C942B110C94B710AAEEB5E0AC92BCE143
S1130E60AB1631F0EEE1AE1619F0FCE5AF1285C019
S1130E70009749F00A9739F00C94B91021E02E8FAD
S1130E8002C031E03E8F6A0DAAEEB5E06C9320E01B
S1130E907BC0BE8DB1110C94BB10E2E0EE8FA0922A
S1130EA0EB05F6E2AF126BC08431910551F08E313F
S1130EB0910539F08832910521F0C29711F00C9414
S1130EC0BD10262F372FADECBCEC0E94763E9695D4
S1130ED08795969587959695879586578093EB0584
S1130EE021E052C06FEE6A0D6093EF0522E048C026
S1130EF0009731F466EA6A0D6093EE0523E044C07E
S1130F000A9711F00C94BF102AE5A21611F40C9460
S1130F10C11024E039C02EE52A192093EC0525E000
S1130F202FC025E12A192093ED0526E029C03E8D26
S1130F3031110C94C31041E3A41206C01092F005C1
S1130F4028E083E08E8F20C00A9711F00C94C5101E
S1130F5091E09093F00528E0A3E0AE8F15C06AEC11
S1130F606A0D6093F10529E00BC0892B11F00C94F4
S1130F70C7102AE009C027E003C020E001C021E037
S1130F80892B11F00C94C910C60102C0880F991F57
S1130F902A95E2F7970128233923232B11F00C9487
S1130FA0CB10E82AF92A24C1892B11F00C94CD1016
S1130FB08A2D90E08F31910510F00C94CF10FC0134
S1130FC0ED56FF4F0C94703EAA2021F0B1E0AB1611
S1130FD099F105C0E3E0E093F2058BE032C0A09202
S1130FE0F2058BE02EC0F4E0AF1659F025E0A2160E
S1130FF069F033E0A31222C080E18093F4058CE011
S113100020C080E28093F4058CE01BC01092F405AC
S11310108CE017C048E0A41621F089E0A81641F03E
S11310200FC08091F30580648093F3058DE009C0BF
S11310301092F3058DE005C08BE003C08CE001C085
S11310408DE0D60102C0AA0FBB1F8A95E2F7970173
S11310502A233B23232B11F00C94D110EA2AFB2AD8
S1131060C7C0812F90E0FC01E654F109E531F10598
S113107010F00C94D310EE54FF4F0C94703E409239
S1131080F6055092F7056092F8057092F90580E034
S11310908DC04092FA055092FB056092FC05709257
S11310A0FD05BF8DB160BF8F81E080C04092FE0519
S11310B05092FF056092000670920106EF8DE26087
S11310C0EF8F82E073C04092020650920306609252
S11310D0040670920506FF8DF460FF8F83E066C0FE
S11310E0A092060684E062C0C301B2010E945F3B85
S11310F060930706709308068093090690930A0686
S113110085E054C040920B0650920C0660920D0686
S113111070920E0686E04AC040920F065092100666
S1131120609211067092120687E040C04092130646
S113113050921406609215067092160688E036C026
S113114020E030E04FE753E4C301B2010E94053DC3
S1131150181614F40C94D510A092170689E026C032
S1131160409218065092190660921A0670921B0655
S11311702D8D21602D8F8AE019C040921C0650925B
S11311801D0660921E0670921F063D8D32603D8FD3
S11311908BE00CC0409220065092210660922206F9
S11311A0709223064D8D44604D8F8CE05601082EBD
S11311B002C0AA0CBB1C0A94E2F791012A213B212C
S11311C0232B11F00C94D710D40102C0B595A79528
S11311D08A95E2F7A0FF0AC020E030E0A901C3012C
S11311E0B2010E94E33A88230CF4E3C72A283B287F
S11311F08981EB8DFC8DE80FF11D10811111D6CD85
S1131200BD8DBB2329F0EE8DE11102C0F2E0FE8F0B
S113121025FE0EC08091070690910806A09109064C
S1131220B0910A0681389649A849B1050CF0C3C7A4
S113123038A13323E1F020FEC0C78091ED05813051
S113124009F054C00AEE15E023E333E34BEC51E418
S1131250D8011C966D917D918D919C911F970E9450
S1131260453DF80164877587868797873FC08091DD
S1131270EC05813061F4FE8DF230C1F58091EB050F
S11312808035A1F1882391F120FE99C72FC0809168
S1131290AB0581112BC020FE19C08091ED05813072
S11312A029F50AEE15E023E333E34BEC51E4D801CE
S11312B01C966D917D918D919C911F970E94453D47
S11312C0F801648775878687978710C08091B90570
S11312D09091BA05A091BB05B091BC058093F60529
S11312E09093F705A093F805B093F90530FC10C06E
S11312F08091B5059091B605A091B705B091B80558
S11313008093130690931406A0931506B0931606C3
S11313108091EA05843021F426FE53C7E89426F828
S11313208091EF05882349F0813009F49CC71BA6FE
S1131330F2E0FAA321E029A39BC78091ED05813057
S1131340A1F532E03BA741E04AA319A20F2EFAEE21
S1131350AF2EF5E0BF2EF02D00E010E08D8DC82EED
S1131360D12CC601002E02C0959587950A94E2F708
S113137080FF12C023E333E34BEC51E4D5019E9686
S11313806D917D918D919C91D1970E94453DF50180
S113139066A777A780AB91AB0F5F1F4FF4E0AF0E4A
S11313A0B11C03301105E9F605C022E02BA731E09A
S11313B03AA319A24E8D433041F48091F005813057
S11313C021F48D8D843009F0FEC68CE0EEECF5E05E
S11313D0DE01169601900D928A95E1F7F1FE11C097
S11313E08091F105873008F0F0C69091B005891717
S11313F041F0BE016A5F7F4F0E945B24882309F499
S1131400E6C6B090EA059AE0B91629F0ACE5BA163A
S113141009F49AC00EC1BD8DBB2309F4DAC6C1011B
S113142080759927892B09F4D6C660910B067091B3
S11314300C0680910D0690910E060E94283E0E9493
S1131440663B673008F0C9C680910606843129F0EE
S1131450823009F0C4C627FCC4C6EFEA2E226623F4
S113146019F061506B8F03C0F091F105FB8F6AEFA7
S113147075E08B8D0E945B24882309F4B4C6209107
S113148006062BA34090E6055090E7056090E8051A
S11314907090E9050AEE15E00F2EFAEACF2EF5E07A
S11314A0DF2EF02DA12CB12C3D8D832E912CC40167
S11314B00A2C02C0959587950A94E2F780FF36C0FE
S11314C04BA1443151F5D601D0962D913D914D91CA
S11314D05C91D39758966D917D918D919C915B977A
S11314E00E94ED39F80126A537A540A951A90E940B
S11314F0ED39D80150966D937D938D939C935397BA
S1131500B2E0AB1213C0A30192010E94ED39F801BD
S1131510608B718B828B938B09C0F80186A597A58C
S1131520A0A9B1A9808B918BA28BB38BFFEFAF1ACB
S1131530BF0A0C5F1F4F24E0C20ED11C33E0A31678
S1131540B10409F0B4CFA6C64D8D442309F44DC6A9
S11315500F2EFAEAAF2EF5E0BF2EF02D4E0186E0F5
S1131560880E911C0AEE15E0C12CD12C642E712C2E
S1131570C3010C2C02C0959587950A94E2F780FF6D
S11315803CC0D4012D913D914D915C91F501608D4C
S1131590718D828D938D0E94ED39D8019E962D9187
S11315A03D914D915C91D1970E94ED39F80166A768
S11315B077A780AB91ABF2E0CF1229C08601000F70
S11315C0111F000F111F06511A4F2091E60530918B
S11315D0E7054091E8055091E9050E94ED39D801ED
S11315E09E966D937D938D939C93D1971091EB056B
S11315F0103509F4FCC51B8EF8C0F50180A991A92A
S1131600A2A9B3A9F80186A797A7A0ABB1ABFFEF36
S1131610CF1ADF0A24E0A20EB11C34E0830E911C21
S11316200C5F1F4F43E0C416D10409F0A1CF1B8EF9
S113163031C68E8D833009F490C09D8D992309F4B1
S11316408CC0A090EE050F2EFAEACF2EF5E0DF2E27
S1131650F02D0AEE15E03E01A6E06A0E711C812C05
S1131660912C492E512C9C8E8B8EC201082C02C0C9
S1131670959587950A94E2F780FD0BC0F601808D5D
S1131680918DA28DB38DF80186A797A7A0ABB1ABBE
S113169054C0F5E3BF1609F450C0A1103BC0D601F5
S11316A0D0962D913D914D915C91D397F30160813A
S11316B07181828193810E94EE39D8019E962D9189
S11316C03D914D915C91D1970E94EE399B01AC0103
S11316D0F80166A777A780AB91ABF2E08F122DC01B
S11316E00B8D1C8D000F111F000F111F06511A4F77
S11316F06091E6057091E7058091E8059091E90510
S11317000E94EE39D8019E966D937D938D939C93A0
S1131710D19723C0F601208D318D428D538DD80190
S11317209E966D917D918D919C91D1970E94EE39F9
S1131730F80166A777A780AB91ABFFEF8F1A9F0ADA
S113174024E0C20ED11C0C5F1F4F34E0630E711CE9
S113175043E08416910409F086CF8EE1B81631F087
S113176095E3B91699F1ACE1BA1235C0BCE1BB12EC
S113177009C06AEF75E086E00E945B24882309F4BF
S113178038C57CC56AEF75E087E00E945B24882336
S113179009F431C573C5A901082E02C055954795B2
S11317A00A94E2F740FD0AC058964D915D916D91FF
S11317B07C915B97408B518B628B738B0196149653
S11317C034968330910539F71B8E64C58091EB05FF
S11317D0823008F012C51091EB05103529F4ED8D17
S11317E0E1110DC51B8E46C21B8EFE8DF23009F031
S11317F041C2111105C02D8D21113CC21E8E3AC269
S113180020E030E0A9016091F6057091F705809120
S1131810F8059091F9050E94E33A882309F4F1C48C
S11318201C3809F40FC240F41230A1F01330A9F0AF
S1131830113009F01FC209C01E3809F403C208F4AC
S1131840FEC11F3809F4FBC115C23D8D311112C20E
S11318501E8E10C248A1446048A38D8D882309F4CC
S1131860D2C4B9A1AB2FB0E0BDA7ACA7EAA1CE2EDC
S1131870D12C81E090E08C0109A002C0000F111F5F
S11318800A94E2F702C0880F991FEA95E2F7082B41
S1131890192BFD8D8F2F90E080239123892B09F440
S11318A0B4C4FD01EE0FFF1FEE0FFF1FE651FA4F08
S11318B0AA0FBB1FAA0FBB1FAE53BA4F2D913D9168
S11318C04D915C9166A577A580A991A90E94ED39F7
S11318D06BA37CA38DA39EA3F601EE0FFF1FEE0F57
S11318E0FF1FE651FA4FD601AA0FBB1FAA0FBB1F59
S11318F0AE53BA4F2D913D914D915C9166A577A55C
S113190080A991A90E94ED396FA378A789A79AA706
S113191027FEEAC0E89427F84CE050E068E176E05E
S113192082EC95E00E94853E892B09F470C4809175
S1131930ED058130A1F40AEE15E023E333E34BEC2B
S113194051E4D80195966D917D918D919C919897D4
S11319500E94453DF80165A376A387A390A78090D4
S11319600F0690901006A0901106B090120620E089
S113197030E040E850E4C501B4010E94453DA501B2
S113198094010E94453D4B015C012BA13CA14DA15A
S11319905EA1CA01B9010E94453D9B01AC01C5018C
S11319A0B4010E94ED394B015C012FA138A549A572
S11319B05AA5CA01B9010E94453D9B01AC01C5016C
S11319C0B4010E94ED394B015C0120E030E0A90133
S11319D00E94E33A88230CF41CC4C501B4010E949C
S11319E0E43D4B015C012FA138A549A55AA56BA183
S11319F07CA18DA19EA10E94702D9B01AC01C5010B
S1131A00B40190580E94ED3A4B015C018091EB05C2
S1131A10833021F4B7FAB094B7F8B09440900F062D
S1131A2050901006609011067090120620E030E08D
S1131A30A901C301B2010E94E33A882384F4B7FAEE
S1131A40B094B7F8B09477FA709477F870944092A1
S1131A500F065092100660921106709212060CA5A1
S1131A601DA5000F111F000F111F06501A4F2FA1A3
S1131A7038A549A55AA5C501B4010E94453D9B015D
S1131A80AC016BA17CA18DA19EA10E94ED3920E047
S1131A9030E040E05FE30E94453DD8016D937D93C3
S1131AA08D939C9313978601000F111F000F111F34
S1131AB006501A4F2BA13CA14DA15EA1C501B40152
S1131AC00E94453D2FA138A549A55AA50E94EE398B
S1131AD020E030E040E05FE30E94453DF801608390
S1131AE0718382839383C6C0FF8D8F2E912C08212E
S1131AF01921012B09F48FC321EF22228091ED05D6
S1131B00813041F50AEE15E0A12CB12CC4010A2C58
S1131B1002C0959587950A94E2F780FF12C023E3EB
S1131B2033E34BEC51E4D80150966D917D918D9146
S1131B309C9153970E94453DF801608B718B828B79
S1131B40938BFFEFAF1ABF0A0C5F1F4F23E0A2165F
S1131B50B104E1F6C601880F991F880F991FDC01B3
S1131B60A650BA4F6D012D913D914D915C916FA19D
S1131B7078A589A59AA50E94ED394B015C010CA5B5
S1131B801DA5000F111F000F111F06501A4FF80159
S1131B9020813181428153816BA17CA18DA19EA1C1
S1131BA00E94ED39A50194010E94702D4B015C0146
S1131BB0D6012D913D914D915C91F8016081718127
S1131BC0828193810E94702D2B013C0160930F064A
S1131BD07093100680931106909312069B01AC013A
S1131BE0C501B4010E94ED394B015C01E894B7F8DA
S1131BF02AE037ED43EA5BE3C501B4010E94053DE9
S1131C001816C4F520E030E040E05FE3C501B401FC
S1131C100E94053D18160CF400C32FE632E143E898
S1131C205AE3C301B2010E94453D9B01AC01C501C9
S1131C30B4010E94053D18160CF4F1C21BC0F8A1B2
S1131C40F061F8A31E58123018F428A1286028A3C4
S1131C503D8D332309F4E5C24CE050E068E176E0C1
S1131C6082EC95E00E94853E892B09F4DCC202C017
S1131C701B8E1E8E48A14170D42E88A180FF03C004
S1131C80C1018E7D03C0C1018E7D9C7FAE8DA111EB
S1131C90937E892B09F0C9C2FE01729689E0DF01A7
S1131CA01D928A95E9F7DD2059F1B6EBEB22EF2876
S1131CB009F0BDC28091EA05853311F08111B9C2E2
S1131CC0EAEAF5E083859485A585B6858E8B9F8B9E
S1131CD0A88FB98F91858085892B8A8F6AEE75E0EC
S1131CE0CE0142960E9431318111F1C29CE0E8E1BB
S1131CF0F6E0A2ECB5E001900D929A95E1F7E7C207
S1131D008091530781FF26C08091EB058150833079
S1131D1018F0E8A1E064E8A3FD8DFF2339F02E8DCF
S1131D20223021F438A1306838A314C08091B3055F
S1131D30803181F48091AA058150833030F448A128
S1131D4046FF08C0406248A305C088A186FD02C0C2
S1131D50806288A3EAEAF5E0AAEEB5E05D964D91CB
S1131D605D916D917C919097448B558B668B778BAD
S1131D7012968C918183882311F088E08A8FAAEED1
S1131D80B5E01C964D915D916D917C911F97EAEAA7
S1131D90F5E04787508B618B728B4A8B5B8B6C8B26
S1131DA07D8B99968D909D90AD90BC909C97A5014C
S1131DB0940163857485858596850E94E33A811133
S1131DC003C098A195FF23C08091B305882379F0BF
S1131DD0A8A1AA2364F0A6FF06C040E050E0BA011F
S1131DE00E94881204C0B501A4010E948812809147
S1131DF0130690911406A0911506B09116068093CF
S1131E00B5059093B605A093B705B093B805B8A1EE
S1131E10B6FD0CC08091B5059091B605A091B705AB
S1131E20B091B8058E8B9F8BA88FB98FEAEAF5E045
S1131E30AAEEB5E09D968C919D97838B1A968C9112
S1131E409185981751F04E895F89688D798D0E942C
S1131E5088128091F4058093B305EAEAF5E09A8D3F
S1131E608185892B8A8F8091F3059085981731F0AD
S1131E700E94B9128091F3058093B2059A8D8091E6
S1131E80B205892B8A8F8091EA05843051F46091E0
S1131E900B0670910C0680910D0690910E060E941F
S1131EA0A905EAEAF5E0AAEEB5E015968C91159736
S1131EB0848313968C918283EE8DE33071F5809147
S1131EC0F0058093AF05811108C01092200610928E
S1131ED021061092220610922306809020069090EC
S1131EE02106A0902206B0902306A50194016091DA
S1131EF0E6057091E7058091E8059091E9050E9457
S1131F00E33A882351F08092E6059092E705A09287
S1131F10E805B092E9050E94D9368091F1059091C7
S1131F20B005981769F08093B0058CE0FE013696F1
S1131F30AEECB5E001900D928A95E1F70E94D93696
S1131F40EAEEF5E084818093AD058081863209F460
S1131F5046C038F48C3129F18E3119F18A3059F0A8
S1131F605FC08C3509F447C0863609F450C0883206
S1131F7009F056C03AC06AEF75E08B8D0E94AC231D
S1131F808091B005FB8D8F134BC08CE0EAEFF5E038
S1131F90AEECB5E001900D928A95E1F70E94D93636
S1131FA03FC08A8D81608A8F2E8D222339F0BE0135
S1131FB06E5E7F4F88E196E00E948702BE016E5EEE
S1131FC07F4F8AEF95E00E9487028CE0EAEFF5E00C
S1131FD0A2ECB5E001900D928A95E1F721C062EC84
S1131FE075E086E00E94AC231BC062EC75E087E0DC
S1131FF00E94AC2315C08CE0E8E1F6E0AAEDB5E060
S113200001900D928A95E1F70E94D93609C08CE0BF
S1132010EAEDF5E0DF011D928A95E9F70E94D936D1
S11320208091EB058093AA05803509F456C0BE8DD6
S1132030B23009F052C0813041F4BE016E5E7F4F70
S113204088E196E00E9487023AC081110BC08A8D14
S113205081608A8FBE016E5E7F4F88E196E00E94A8
S113206087022DC082508230E8F4E0900F06F09091
S113207010060091110610911206E8A1E2FB8827D0
S113208080F98F938BA4AAA0C9A02AEF35E042EC73
S113209055E0BE016E5E7F4F88E196E00E94C80263
S11320A00F900DC08A8D84608A8F48A1BE016E5E38
S11320B07F4F88E196E00E94D40581110AC08CE02C
S11320C0E8E1F6E0A2ECB5E001900D928A95E1F723
S11320D004C0813011F40E9482068091F20580933D
S11320E0B105882309F4F3C00E945A178091B10501
S11320F0833051F480917C05823079F188E00E942C
S113210080370E94AD1529C0EAEAF5E081E08083BA
S1132110148213821182168211861086ECE7F5E090
S113212084E68783808781878081823099F06EEC92
S113213075E080E00E945B24882309F47CC00E943F
S1132140D93640E050E0BA0180E00E94601280E09D
S11321500E94AD1288E00E944B331092B1058D2D80
S1132160B6C081E0B4C082E0B2C084E1B0C088E10E
S1132170AEC084E1ACC088E1AAC084E1A8C084E117
S1132180A6C084E1A4C088E1A2C084E1A0C084E127
S11321909EC087E19CC085E19AC087E198C084E134
S11321A096C085E194C084E192C086E290C089E142
S11321B08EC084E08CC08BE18AC086E188C086E151
S11321C086C08CE184C085E282C08DE180C087E056
S11321D07EC08AE17CC08CE17AC08DE178C084E164
S11321E076C084E174C087E072C08AE170C08FE178
S11321F06EC087E06CC087E06AC08EE168C08FE182
S113220066C086E164C08AE162C080E260C081E2A7
S11322105EC082E25CC083E25AC081E258C081E2BF
S113222056C08AE154C081E252C084E250C080E1C9
S11322304EC080E14CC087E04AC08FE148C019829B
S113224018A20C94C306AAEEB5E0AC92BCE1AB12A2
S113225027C00C943A07EAEEF5E0A082FCE1AF1245
S113226025C00C943E0721E02BA71AA232E039A323
S11322708091ED05813009F09DC868C84D8D4423D7
S1132280F1F0AAEAB5E0EAEEF5E080E090E0242F70
S113229030E081CA1091EB05103509F0A6CACDCF04
S11322A0AEE1AA120C9435070C943A07BEE1AB16C2
S11322B011F40C944107E1E0EE8F0C943507109172
S11322C0EB05103509F4D4CC1B8E1E8E8ECAAD9648
S11322D00FB6F894DEBF0FBECDBFDF91CF911F9133
S11322E00F91FF90EF90DF90CF90BF90AF909F90B1
S11322F08F907F906F905F904F903F902F900895B4
S1132300E0EBF0E080818F7780830895239A83E067
S11323108093B00084E08093B100259A20914F0708
S113232030915007409151075091520760914B07EB
S113233070914C0780914D0790914E070E94ED39A2
S11323409B01AC0160E070E08EE793E40E94ED3AFB
S1132350609302017093030180930401909305013B
S11323600E94801108958093B300811106C0E0EBB0
S1132370F0E080818F7780830895E0EBF0E0808146
S11323808068808308954F925F926F927F928F92BC
S11323909F92AF92BF92CF92DF92EF92FF922B0166
S11323A03C0180904F0790905007A0905107B09047
S11323B05207C0904B07D0904C07E0904D07F09027
S11323C04E07A7019601C501B4010E94053D88236B
S11323D0CCF46091850570E080E090E00E94973B2A
S11323E02AE037ED43E25CE30E94453DA3019201FC
S11323F00E94453D2B013C01A70196010E94053D29
S1132400882354F0C0928905D0928A05E0928B0506
S1132410F0928C058FEF47C0A5019401C301B2016E
S11324200E94E33A1816E4F020E030E0A901C30169
S1132430B2010E94E33A811109C0109289051092F9
S11324408A0510928B0510928C052DC08092890507
S113245090928A05A0928B05B0928C0581E023C0EE
S11324604092890550928A0560928B0570928C0582
S1132470A5019401C301B2010E94ED39209102012A
S11324803091030140910401509105010E94453DA2
S11324900E94D23B20E030E040E85FE30E94EE3946
S11324A00E94663B862FFF90EF90DF90CF90BF9005
S11324B0AF909F908F907F906F905F904F90089512
S11324C090917D05911123C081110BC01092890553
S11324D010928A0510928B0510928C050E9480112F
S11324E014C0803111F42D980AC02D9A909153078D
S11324F091FF05C0803219F440E050E0BA01CB01ED
S1132500BA010E94C3110E94B31110928705089565
S1132510CF92DF92EF92FF92CF9390917C0592300D
S113252051F06A017B01C82F0E945A17B701A60116
S11325308C2F0E946012CF91FF90EF90DF90CF908C
S11325400895439B02C080E4089580E00895439871
S113255008953B9A0E94A712089590917D059111C8
S113256007C086FF02C0439A01C0439810928705B2
S11325700895CF9390917C05923031F0C82F0E943A
S11325805A178C2F0E94AD12CF910895E0ECF0E021
S11325908081826080831092C50080E18093C400B2
S11325A0E1ECF0E08081886980830895E09107017F
S11325B021E02E0F293631F420E004C090918E05DD
S11325C094FD0FC0909106019217C1F3F0E0EC5D09
S11325D0F94F808320930701E1ECF0E08081806271
S11325E0808308951F920F920FB60F9211248F9338
S11325F09F93EF93FF9380910601E82FF0E0EC5D49
S1132600F94F90819093C6008F5F893609F480E07A
S11326108093060190910701891305C0E1ECF0E075
S113262080818F7D8083FF91EF919F918F910F9097
S11326300FBE0F901F901895909108018091090189
S1132640981761F0E92FF0E0E357F94F80819F5F1D
S1132650913809F490E09093080108958FEF08955C
S11326601F920F920FB60F9211242F933F934F9303
S11326705F936F937F938F939F93AF93BF93EF93E6
S1132680FF93E091C600E13259F0EE3729F0E831CA
S113269059F40E944C067AC082E00E94803776C0CA
S11326A088E00E94803772C0EE230CF05EC08E2F4B
S11326B090E0FC01E458F109ED31F10508F066C041
S11326C0E953FF4F0C94703E80E20E9480375EC055
S11326D080917C0585FF5AC080E40E94803756C0F3
S11326E09FB7F8948091A90581608093A9059FBF45
S11326F04DC081E00E94CF3949C082E00E94CF39A9
S113270045C084E00E94CF3941C088E00E94CF399F
S11327103DC080E10E94CF3939C080E20E94CF39A8
S113272035C080E40E94CF3931C080E80E94CF399F
S11327302DC081E00E94D83929C082E00E94D83996
S113274025C084E00E94D83921C088E00E94D8398D
S11327501DC080E10E94D83919C080E20E94D83996
S113276015C080E40E94D83911C0A091090181E00C
S11327708A0F813809F480E090910801891731F0BB
S1132780B0E0A357B94FEC9380930901FF91EF9107
S1132790BF91AF919F918F917F916F915F914F9175
S11327A03F912F910F900FBE0F901F90189580911D
S11327B00901809308010895E0910001F09101015D
S11327C0CF010196909301018093000184910895B3
S11327D00E94CC27892B19F082E00E94803708954B
S11327E0CF93C091A805CC23A9F081E080937C0508
S11327F08C2F0E943A33C150C23050F481E00E94C1
S11328004B3380E10E94B93980918E0584FFFCCF5F
S11328100E94C939C0918E05CC2309F4F1C0C4FFCC
S113282004C081E080937D0596C18C2F887E09F4D5
S113283064C080917C05982F937009F04DC0887214
S113284099F080917E05807C79F40E94581AECE717
S1132850F5E082E084838081803231F4CC23BCF0C3
S113286092819068928313C080917C05811106C087
S113287091E090937E05C6FD05C065C1C6FF07C003
S113288085FD05C0ECE7F5E0928190649283C3FF77
S113289005C0807E19F480E180937C05C5FF1CC0CF
S11328A086E00E944B3380917E05882384F09091CA
S11328B07C05903439F483FF07C0837E8260809363
S11328C07E0502C0903819F080E480937C05ECE723
S11328D0F5E0828180628283CC2364F480917C055C
S11328E0813029F4ECE7F5E082818560828380E819
S11328F080937C0588EE0E94B939C1FF43C08C2FB8
S11329008876E9F580917C05803479F480917E05A0
S113291085FD35C084FF03C010927C0518C082FF7A
S11329202EC0886080937E052AC0882381F084FFAE
S113293026C090917E0590FF22C0803141F48091A1
S11329408605882321F088608093860518C010923C
S113295080050E94CC27892B71F080917E0586FD2D
S11329600AC0ECE7F5E0128288E080830E94781ABE
S11329700E946F1704C0ECE7F5E01282108282E037
S11329800E94B939C2FF3CC080917C05807DB9F0BA
S113299080917F05811113C080917E0588239CF06E
S11329A00E94592C8091800581FF05C0ECE7F5E079
S11329B0928191609283897F809380051EC080916B
S11329C07E05882354F4109280050E94A5270E9456
S11329D0031A0E9482060E94472C80917E0585FF7F
S11329E008C0ECE7F5E08F778160828380E4808320
S11329F004C0ECE7F5E01282108284E00E94B93949
S1132A00C0917B05CC2381F10E94E139209183059B
S1132A10C0FF02C084E601C0822FC1FD865FC2FDF3
S1132A208A50C3FD8F5FC4FD8150893C08F088EC57
S1132A308A3008F48AE030918405C5FF02C094E628
S1132A4001C0932FC6FD92E3CC230CF499E1281323
S1132A5002C0931749F0ECE7F5E08783908713866B
S1132A600E947A280E94592CC0918D05CC2309F428
S1132A7058C00E94E73990918505C0FF02C084E6E2
S1132A8001C0892FC1FD865FC2FD8A50C3FD8F5FDF
S1132A90C4FD8150893C08F088EC8A3008F48AE04F
S1132AA09817B9F0ECE7F5E08187808181110AC0BD
S1132AB0EAEAF5E0438554856585768581850E943B
S1132AC0601205C0ECE7F5E084818860848310928D
S1132AD08705C5FF12C080917C05803171F4809117
S1132AE08605811104C082E08093860529C080FF99
S1132AF027C084608093860523C0C07C91F08091B8
S1132B007C05882311F0887361F0C091B205C6FF7B
S1132B1002C0CF7B01C0C0648C2F0E94AD12C09351
S1132B20B2058091A905882321F00E9455361092A0
S1132B30A90580917C058C7F71F00E94781A0BC0E6
S1132B40C07C19F703C0C3FDA6CEA8CE8091A90509
S1132B50882399F3EACFCF9108957F928F929F9221
S1132B60AF92BF92CF92DF92EF92FF920F931F9397
S1132B70CF93DF930E94F01380917E05882309F49C
S1132B8001C10E94CC27EC01892B51F4EAEAF5E05B
S1132B90D1848085D82A83849484A584B6840BC088
S1132BA08989182F10730E94A112D82ED12A8EA4BD
S1132BB09FA4A8A8B9A88091530781FF03C080E20D
S1132BC00E94D83990917E05992309F4DBC0809145
S1132BD07D058111D7C0CCE7D5E08D2D8073C82E3B
S1132BE00AEA15E00F2EF3E5EF2EF7E0FF2EF02DA5
S1132BF077247394ED2DE07CDE2E03C0298121110E
S1132C00C1C090FFB2C02881322F307C09F471C05A
S1132C1092FD0FC01A8640E050E0BA0180E00E94A5
S1132C20601280E00E94AD128A818D7F84608A8365
S1132C309CC02038D1F48BE00E944B3340E050E03C
S1132C40BA0180E00E94601280E00E94AD120E94EE
S1132C50871780917D05811195C0CCE7D5E00E944E
S1132C60F01389818823D9F38DC0203439F40E946C
S1132C70B336811103C08A818F7D8A838A8183FF61
S1132C8074C0F80191859923D1F081FD74C0F701D6
S1132C90808181FF08C08C8188608C83F8018085E5
S1132CA0811114C06DC0B501A4018C2D0E94601265
S1132CB0472D60E070E080E890E40E94282DF80140
S1132CC08085882369F08A8181FD4FC08D2D0E9403
S1132CD0AD12472D60E070E080E89FE30E94282D4C
S1132CE08A8181FD42C080618A8382E00E948037AC
S1132CF03CC09A85992371F191FF0EC0F80181853A
S1132D00882341F040E050E0BA0180E00E94601264
S1132D107A862BC01A8629C09C7039F1F801818506
S1132D20882381F08AE00E944B33F701808181FF80
S1132D3004C08C8188608C8305C0B501A4018C2DEE
S1132D400E9460128A8583FF03C082E00E9480375C
S1132D501A860BC08C8183FF08C0B501A4018C2D99
S1132D600E9460128C81877F8C830E94F0139A8169
S1132D70911144CF07C0F80180858111F6CFB0CFFF
S1132D808A81B1CFDF91CF911F910F91FF90EF9086
S1132D90DF90CF90BF90AF909F908F907F900895D9
S1132DA00F931F93CF93C62F0CE715E0F801818191
S1132DB0811113C0CC2319F0C13021F00EC00E9440
S1132DC01C1302C00E94DC138F3F29F08A3071F774
S1132DD010920A0102C010920A0180E0CF911F9163
S1132DE00F9108950F931F93CF9380917C05817861
S1132DF059F082E00E944B3381E080937C058091FE
S1132E007D05882379F052C010927C050E94B33668
S1132E108823A9F380918E05806280938E050E9499
S1132E20AD15EDCFC0E00CE715E0C11137C08091BE
S1132E308E0581FF05C08AE091E00E94B5362EC060
S1132E4060E08AE091E00E94D0168823E9F0C0E0B7
S1132E5001C0C1E080910A01843239F48AE091E032
S1132E600E9489370E94263312C0F8018081817242
S1132E7021F089E00E9426330AC08AE091E00E9492
S1132E8089060E94263303C00E94E813C0E00E9412
S1132E90AD15F8018181882341F208C061E08AE020
S1132EA091E00E94D0168111D4CFCACFCF911F9147
S1132EB00F910895CF93DF930E94E813CCE7D5E0F8
S1132EC00E94AD158981811107C00E94CC27892BEE
S1132ED0B9F788818830A1F3DF91CF91089580916B
S1132EE0530782FF02C0289A01C02898E4E9F1E060
S1132EF080919001868780913E07880F8450819548
S1132F008587EFE6F0E08081826080830895EFE6B4
S1132F10F0E080818D7F8083E1E8F0E08081887F2C
S1132F208160808310928E01809141078F3F49F424
S1132F309091A805911105C090917C05903881F479
S1132F4004C090917C05943059F090E00E94652D66
S1132F508091530782FD02C0289A08952898089505
S1132F608091530782FFFACFF7CF1F920F920FB6CB
S1132F700F9211242F933F934F935F936F937F93FB
S1132F808F939F93AF93BF93CF93DF93EF93FF936D
S1132F9080918E018111CEC18BB1E4E9F1E0978576
S1132FA0907E8F71892B8BB98BB1837E9685892B0B
S1132FB08BB9858586BD82E085BD81E080938E01D5
S1132FC0789481A192A1892B09F0A7C080919301E3
S1132FD090919201981709F490C0E0919301A4E9AB
S1132FE0B1E087E0E89FF0011124E954FE4F929686
S1132FF0FC93EE93919782819381909389008093BF
S11330008800808191815D969C938E935C978481E6
S11330105E969C915E97981749F1ED018E8F90E032
S1133020880F991FDC01AA0FBB1FAA0FBB1FAA0F91
S1133030BB1F8A0F9B1FDC01AF51BE4FB8A3AF8FDC
S11330401C968D919D910D90BC91A02DB695A79540
S11330509795879588879987AA87BB878C839D8353
S1133060AE83BF8388839983AA83BB83A4E9B1E039
S11330705F96CD91DC919097988980918F018927F3
S11330801F968C931F97488159816A817B810580A3
S113309004C076956795579547950A94D2F750964C
S11330A04D935D936D937C9353974C815D816E81B9
S11330B07F81058004C076956795579547950A9456
S11330C0D2F754964D935D936D937C9357974885AF
S11330D059856A857B85058004C0769567955795E3
S11330E047950A94D2F758964D935D936D937C93CC
S11330F05B9786810E94B31110C00E948717E091EC
S1133100B301F091B4018189882319F080E00E9411
S1133110B31184E00E9480370DC180918F05813006
S113312011F40E94BE32E4E9F1E016864081518137
S11331306281738180899189A289B389840F951FE3
S1133140A61FB71F80839183A283B383078CF0A14A
S1133150E02D4485558566857785481759076A07A4
S11331607B0770F5C4E9D1E024E02E8744855585BA
S113317066857785841B950BA60BB70B888399838B
S1133180AA83BB83808985FF0EC0CCE9D5E0888102
S11331909981AA81BB810197A109B1098883998387
S11331A0AA83BB830DC0CCE9D5E088819981AA812B
S11331B0BB810196A11DB11D88839983AA83BB831A
S11331C0C4E9D1E04C815D816E817F818C899D89C8
S11331D0AE89BF89840F951FA61FB71F8C839D835B
S11331E0AE83BF834485558566857785481759071F
S11331F06A077B0768F52E8528602E8744855585E8
S113320066857785841B950BA60BB70B8C839D83F2
S1133210AE83BF83808986FF0EC0CCE9D5E08C8164
S11332209D81AE81BF810197A109B1098C839D83E2
S1133230AE83BF830DC0CCE9D5E08C819D81AE8186
S1133240BF810196A11DB11D8C839D83AE83BF8375
S1133250C4E9D1E0488559856A857B85888D998D37
S1133260AA8DBB8D840F951FA61FB71F88879987CA
S1133270AA87BB874485558566857785481759078E
S11332806A077B0768F52E8520612E87448555855E
S113329066857785841B950BA60BB70B8887998762
S11332A0AA87BB878089882374F4ECE9F5E08085DC
S11332B09185A285B3850197A109B109808791877A
S11332C0A287B3870DC0ECE9F5E080859185A285DE
S11332D0B3850196A11DB11D80879187A287B3870D
S11332E080917C05843039F4E4E9F1E0968580919D
S11332F0820589238687E4E9F1E0848D958D019721
S1133300958F848F892B69F41092B6011092B501C0
S1133310809193018F5F80939301863011F4109212
S11333209301E4E9F1E096858091900189278687ED
S113333010928E01FF91EF91DF91CF91BF91AF91E8
S11333409F918F917F916F915F914F913F912F91B9
S11333500F900FBE0F901F9018951F920F920FB6EB
S11333600F9211248F939F938BB1909190019C7134
S1133370837E892B8BB915BC9F918F910F900FBEC3
S11333800F901F901895EF92FF920F931F93CF9376
S1133390DF931092900110928F01C0E0D0E00EE014
S11333A017E0EC2EFC2EF80181A990E00C2E02C04F
S11333B0959587950A94E2F780FF08C08C2F0E94A8
S11333C0172690919001892B80939001F80182A98E
S11333D090E002C095958795FA94E2F780FF08C0C3
S11333E08E2D0E94212690918F01892B80938F012D
S11333F02196C330D105A9F6DF91CF911F910F918A
S1133400FF90EF900895CF93DF930E94871780E396
S1133410EAE5F1E0DF011D928A95E9F7C4E9D1E01C
S113342083E2FE0111928A95E9F710928D011092C0
S11334308C01109293011092920181E0809391018A
S113344010928E010E94C31980918F018F878BB1D6
S1133450837E90919001892B8BB98BB18F71909160
S11334608F01892B8BB9DF91CF9108958AB18C613B
S11334708AB9209A8AB1806E8AB9E1E8F0E0808145
S11334808F7E8083808188608083E0E8F0E08081A3
S11334908C7F808380818F708083EEE6F0E0808172
S11334A0887F808314BC15BC8081816080830895EB
S11334B0CF93DF93C0918C01D0918D012097A9F017
S11334C0EAE5F1E08181816081836789708D818D76
S11334D0928D9B01AC010E94453D6A8B7B8B8C8B4A
S11334E09D8B10928D0110928C01DF91CF910895E4
S11334F02F923F924F925F926F927F928F929F9200
S1133500AF92BF92CF92DF92EF92FF920F931F93ED
S1133510CF93DF93CDB7DEB7EA970FB6F894DEBF4B
S11335200FBECDBF8091800580FF02C00C94BF22E6
S113353022E02AAF29AFE5C780918C0190918D01DB
S1133540892B09F03AC38091800582FF07C00E944D
S1133550C32790938D0180938C0106C00E94CC27D1
S113356090938D0180938C0100918C0110918D01B9
S11335700115110511F40C94BF22F0905B018F2DFD
S11335808170F0FE03C010925B01F6C0AAE5B1E0C1
S11335909C919F5F953009F0892FEAE5F1E08083E3
S11335A090E0FC01EE0FFF1F9F01220F331F220F3B
S11335B0331F220F331FE20FF31FEF51FE4FF0931F
S11335C08B01E0938A01D80150962C915097208B5F
S11335D09801245F3F4F4D915D916D917D91440F12
S11335E0551F661F771F440F551F661F771F440F13
S11335F0551F661F771F4193519361937193A217CF
S1133600B30749F7880F991FFC01EE0FFF1FEE0F58
S1133610FF1FEE0FFF1F8E0F9F1F9C012F513E4F68
S1133620F80184859585A685B785880F991FAA1FFB
S1133630BB1F880F991FAA1FBB1F880F991FAA1FA2
S1133640BB1FF90184879587A687B787D8011C9685
S11336506D917D918D919C911F970E94953B6093F4
S11336606001709361018093620190936301F8019A
S1133670268D378D40A151A10E94ED3A9B01AC01EA
S11336806093640170936501809366019093670170
S113369060E070E080EA9FE30E94ED3A6093680185
S11336A07093690180936A0190936B0110925C019D
S11336B010925D0110925E0110925F01809180056D
S11336C081FD02C0F3FE20C06091790170917A01FE
S11336D080917B0190917C016093710170937201E0
S11336E080937301909374019B01AC010E94453D4A
S11336F0D80152966D937D938D939C9355978F2DFE
S1133700877F80935B010FC0F80162897389848984
S113371095890E94E43D60937101709372018093D6
S113372073019093740100918A0110918B01D80167
S113373051961C92E3E5F7E0808181FF1DC0E09182
S11337408C01F0918D01818985FF16C022A533A5D6
S113375044A555A560E070E080E89FE30E94ED3A3F
S1133760609385017093860180938701909388010B
S1133770E1E0D8015196EC9310926D0110926E0124
S113378010926F011092700100918C0110918D01C3
S1133790D8015A968D909D90AD90BC905D97A501EF
S11337A0940160E070E080E09FE30E94ED3A698359
S11337B07A838B839C838091800581FF55C0B2E01E
S11337C0B0936C01F801468C578C60A071A0C2883C
S11337D0D388E488F588A701960169817A818B8171
S11337E09C810E94453D9B01AC01C301B2010E9432
S11337F0ED3969837A838B839C8320E030E0A901CF
S11338000E94E33A8823DCF4A5019401C501B401C4
S11338100E94EE39A30192010E94453D9B01AC0137
S1133820C701B6010E94ED390E94E43D609379011D
S113383070937A0180937B0190937C01B9C12981B3
S11338403A814B815C8120936D0130936E014093EA
S11338506F01509370011092790110927A011092C5
S11338607B0110927C01A4C110926C01D8015E9678
S11338704D915D916D917C91919740937D01509311
S11338807E0160937F017093800182FF0DC01092CE
S1133890790110927A0110927B0110927C011986B1
S11338A01A861B861C8610C00E94DC2769877A87CB
S11338B08B879C870E94E43D6093790170937A0121
S11338C080937B0190937C0180918C0190918D0178
S11338D00E94FD274B015C019B01AC010E94453D08
S11338E06D837E838F83988700918C0110918D0165
S11338F0F801C68CD78CE0A0F1A042885388648874
S11339007588A30192010E94E33A88230CF079C0E0
S11339102D813E814F815885C301B2010E94ED394A
S113392029813A814B815C810E94453D9B01AC0118
S1133930C701B6010E94ED3960937D0170937E0149
S113394080937F019093800120E030E0A9010E94E0
S1133950E33A181694F1F2E0F0936C01D8015A9608
S1133960CD90DD90ED90FC905D97A7019601C70185
S1133970B6010E94EE39F801268D378D40A151A180
S11339800E94453D9B01AC01D80152966D917D91F9
S11339908D919C9155970E94ED390E94E43D60936E
S11339A0790170937A0180937B0190937C018091DB
S11339B05B01886080935B01FBC029853A854B8558
S11339C05C856D817E818F8198850E94ED39298186
S11339D03A814B815C810E94453D609381017093E3
S11339E08201809383019093840180927501909267
S11339F07601A0927701B0927801B3E0B0936C01A4
S1133A00D7C029853A854B855C85C301B2010E94E4
S1133A10ED3929813A814B815C810E94453DA701A2
S1133A2096010E94EE3920E030E040E05FE30E941E
S1133A30453D2B013C0120E030E0A9010E94053DF9
S1133A4018160CF09DC0A3019201C701B6010E9493
S1133A50053D18160CF090C029853A854B855C8588
S1133A606D817E818F8198850E94ED3929813A810B
S1133A704B815C810E94453D9B01AC0160938101B7
S1133A80709382018093830190938401C301B201F6
S1133A900E94053D1816F4F5809275019092760106
S1133AA0A0927701B0927801F80142885388648823
S1133AB07588A30192016D817E818F8198850E9412
S1133AC0E33A811104C0F1E0F0936C0171C0A301E9
S1133AD092016D817E818F8198850E94ED392981C3
S1133AE03A814B815C810E94453D9B01AC01609110
S1133AF07D0170917E0180917F01909180010E94EF
S1133B00ED3960937D0170937E0180937F019093E2
S1133B1080014EC040927D0150927E0160927F01EF
S1133B2070928001409281015092820160928301DF
S1133B3070928401D8015A96CD90DD90ED90FC905E
S1133B405D97A7019601C701B6010E94EE39A30152
S1133B5092010E94453D29853A854B855C850E94EA
S1133B60EE390E94E43D6093750170937601809371
S1133B707701909378011CC0B2E0B0936C0118C037
S1133B8010927D0110927E0110927F0110928001AB
S1133B908091790190917A01A0917B01B0917C018F
S1133BA08093750190937601A0937701B093780187
S1133BB080918005886080938005E09192012E2F8A
S1133BC030E03AA729A737E0E39FF0011124E95434
S1133BD0FE4FAAE5B1E08C918483E0918C01F091D1
S1133BE08D01FC8FEB8FF68DFBA7AB8DBC8D5F96A3
S1133BF0BC91BCA7EB8DFC8DF0A1FDA7AB8DBC8D5A
S1133C009196BC91BEA720916801309169014091C1
S1133C106A0150916B016BA57CA58F2F9B2F0E948D
S1133C20ED3969A37AA38BA39CA320E030E0A9011A
S1133C300E94E33A882324F419A21AA21BA21CA20C
S1133C40209175013091760140917701509178016E
S1133C502F8B388F498F5A8F30917D013D8F409142
S1133C607E014E8F50917F015F8F8091800188A3E8
S1133C70909181019DA3A0918201AEA3B091830193
S1133C80BFA3E0918401E8A710916C01F0916D014C
S1133C90FB8B20916E012C8B30916F013D8B4091F9
S1133CA070014E8B8091790190917A01A0917B01F2
S1133CB0B0917C018FA798ABA9ABBAAB2DA13EA163
S1133CC04FA15E2F6D8D7E8D8F8D98A10E94E33A5A
S1133CD0811102C08AAD01C081E03BA42CA45DA483
S1133CE04EA49EE399830F2EF3EC6F2EF02D0F2E2E
S1133CF0FEE27F2EF02D09E3812C912C5401AEE3DA
S1133D00AD83B3ECB987EEE2ED87F9E3FE878FABC1
S1133D10F32C372CE22C262CD52CC42C113009F48E
S1133D201FC108F496C0133009F057C1AB8DBC8D88
S1133D305A962D913D914D915C915D976981722DBB
S1133D40832D902F0E94453D6F87788B898B9A8BAA
S1133D5040907101509072016090730170907401F1
S1133D602F89388D498D5A8DC301B2010E94ED39D6
S1133D709B01AC016F85788989899A890E94053DE8
S1133D808823A4F12D8D3E8D4F8D58A16BA57CA564
S1133D908DA59EA50E94ED399B01AC010E94EE39D0
S1133DA06B017C012F89388D498D5A8DC301B20175
S1133DB00E94EE399B01AC01C701B6010E94ED3AA5
S1133DC06983272E382E092F2F89388D498D5A8DD6
S1133DD020937101309372014093730150937401E5
S1133DE0FD8CEE8CDF8CC8A018AD8EC120E030E0D5
S1133DF040E05FE36F85788989899A890E94453D0F
S1133E009B01AC01C301B2010E94ED392981322D1D
S1133E10432D502F0E94453D9B01AC016F2D7E2DFB
S1133E208D2D9C2D0E94ED39F62EE72ED82EC92E0D
S1133E302F85388949895A89C301B2010E94ED3915
S1133E406093710170937201809373019093740174
S1133E505BC1AB8DBC8D5A962D913D914D915C917A
S1133E605D976981722D832D902F0E94453D6F8748
S1133E70788B898B9A8B409071015090720160907D
S1133E8073017090740120E030E040E05FE30E9431
S1133E90453DA30192010E94EE392981322D432D23
S1133EA0502F0E94453D9B01AC016F2D7E2D8D2D21
S1133EB09C2D0E94ED39F62EE72ED82EC92E262FE2
S1133EC0372F482F592F6D8D7E8D8F8D98A10E948D
S1133ED0053D1816A4F52D8D3E8D4F8D58A16BA56B
S1133EE07CA58DA59EA50E94ED399B01AC010E9485
S1133EF0EE396B017C01A30192016F89788D898D64
S1133F009A8D0E94EE399B01AC01C701B6010E9453
S1133F10ED3A6983272E382E092F2F89388D498D44
S1133F205A8D209371013093720140937301509321
S1133F3074011FA9FD8CEE8CDF8CC8A0E5C0A30121
S1133F4092016F85788989899A890E94EE396093F4
S1133F507101709372018093730190937401D4C0C2
S1133F602F89388D498D5A8D6981722D832D902F1B
S1133F700E94453D9B01AC016F2D7E2D8D2D9C2D06
S1133F800E94ED39462E572E682E792E262F372F74
S1133F90482F592F6DA17EA18FA198A50E94053DA0
S1133FA018160CF0ADC02DA13EA14FA158A56F2D40
S1133FB07E2D8D2D9C2D0E94ED392F89388D498DB4
S1133FC05A8D0E94ED3A6983272E382E092FFDA0C1
S1133FD0EEA0DFA0C8A419AD97C0AB8DBC8D5A96D6
S1133FE02D913D914D915C915D976981722D832D49
S1133FF0902F0E94453D6F87788B898B9A8B4090D8
S11340007101509072016090730170907401A3016A
S113401092010E94E33A88230CF03FC020E030E094
S113402040E05FE36F85788989899A890E94453DDC
S11340309B01AC01C301B2010E94ED392981322DEB
S1134040432D502F0E94453D9B01AC016F2D7E2DC9
S11340508D2D9C2D0E94ED396BAB7CAB8DAB9EAB53
S11340602B893C894D895E890E94053D1816ACF464
S11340702F85388949895A89C301B2010E94ED39D3
S11340806093710170937201809373019093740132
S1134090FBA8ECA8DDA8CEA837C02B893C894D89A4
S11340A05E896F2D7E2D8D2D9C2D0E94ED399B01F7
S11340B0AC010E94EE396B017C012FA538A949A9F6
S11340C05AA9C301B2010E94EE399B01AC01C70198
S11340D0B6010E94ED3A6983272E382E092F2FA5A9
S11340E038A949A95AA920937101309372014093C8
S11340F0730150937401FB88EC88DD88CE8804C07A
S1134100F42CE52CD62CC72C2981322D432D502F8D
S1134110C501B4010E94EE394B015C019B01AC0165
S11341206D8179858D859E850E94053D18166CF4F8
S1134130A50194016D8179858D859E850E94ED3957
S11341406983272E382E092F29C029A13AA14BA112
S11341505CA16F2D7E2D8D2D9C2D0E94053D181682
S11341603CF03F2C2E2C5D2C4C2C10936C0129C060
S11341702EE333EC4EE259E36D8179858D859E857E
S11341800E94EE396D8379878D879E87A5019401FE
S11341900E94ED396983272E382E092F2B893C89FB
S11341A04D895E896F2D7E2D8D2D9C2D0E94053DA0
S11341B018160CF4B3CD3F2C2E2C5D2C4C2C1093E4
S11341C06C01E0918A01F0918B0181898111C1C157
S11341D08091800583FDCDC114C00E94C3118093DA
S11341E089010AC01092890510928A0510928B05E4
S11341F010928C051092890180918005877F8093AD
S1134200800509A51AA5000F111F000F111F000F2B
S1134210111F49A55AA5041B150B09541E4F809163
S11342208901D80116968C9320916401309165011F
S11342304091660150916701632D722D852D942D57
S11342400E94453D69837A838B839C830E94CC3A88
S11342506D837E838F839887609160017091610183
S113426080916201909163010E94CC3A69877A87B8
S11342708B879C872D813E814F8158850E94ED3923
S11342800E94663B6B017C01F80171836083672B9C
S113429041F48091800581FF04C081608093800592
S11342A06EC120915C0130915D0140915E0150919D
S11342B05F01C501B4010E94EE394B015C01298103
S11342C03A814B815C8169857A858B859C850E94C6
S11342D0ED399B01AC01C501B4010E94ED3A4B01DB
S11342E05C0120EC31EE44E65EE40E94453D0E9410
S11342F0CC3A0E94663B603DF7E07F07810591055B
S113430080F4E9A5FAA5EE0FFF1FEE0FFF1FEE0FD5
S1134310FF1F29A53AA5E21BF30BE954FE4F1582B2
S11343205DC0603A3FE073078105910588F4E9A513
S1134330FAA5EE0FFF1FEE0FFF1FEE0FFF1F49A59B
S11343405AA5E41BF50BE954FE4F51E0558327C0F1
S11343506034AFE17A078105910588F4E9A5FAA5EF
S1134360EE0FFF1FEE0FFF1FEE0FFF1F29A53AA54B
S1134370E21BF30BE954FE4F32E0358310C0E9A58C
S1134380FAA5EE0FFF1FEE0FFF1FEE0FFF1F49A54B
S11343905AA5E41BF50BE954FE4F53E05583E9A5F8
S11343A0FAA5EE0FFF1FEE0FFF1FEE0FFF1FA9A5CB
S11343B0BAA5EA1BFB0BE954FE4F2581022E04C06B
S11343C096958795779567950A94D2F7A60102C0CA
S11343D0440F551F2A95E2F75183408361157105F7
S11343E051E08507910588F4E9A5FAA5EE0FFF1FB2
S11343F0EE0FFF1FEE0FFF1FA9A5BAA5EA1BFB0BCB
S1134400E954FE4F7383628313C089A59AA5880F6C
S1134410991F880F991F880F991FE9A5FAA58E1B6C
S11344209F0BFC01E954FE4F2FEF3FEF33832283B0
S113443080919101809392018F5F863019F080936F
S1134440910102C010929101E0918C01F0918D01D3
S1134450832D922DA52DB42D868F978FA0A3B1A364
S11344608D819E81AF81B8858093600190936101B5
S1134470A0936201B093630129813A814B815C81ED
S1134480BC01CD010E94ED39A50194010E94453D76
S113449060935C0170935D0180935E0190935F0172
S11344A020916D0130916E0140916F015091700126
S11344B0632D722D852D942D0E94E33A811123C022
S11344C0752C532C20E030E0A901652D722D872D29
S11344D0942D0E94053D181634F4ECE7F5E0848130
S11344E0816084834CC08091800582FF04C0816018
S11344F08093800544C010928D0110928C010E941B
S1134500AF2791E098AF9091930180919101981316
S113451013C835C0AB8DBC8D9E96CD90DD90ED90CB
S1134520FC90D197209185013091860140918701BB
S113453050918801609171017091720180917301B1
S1134540909174010E94453DA70196010E94453D4A
S113455044CEEB8DFC8D8189807309F443CEDACF90
S1134560AB8DBC8D9E966D917D918D919C91D197D3
S113457034CEEB8DFC8D8189807391F733CEEA962E
S11345800FB6F894DEBF0FBECDBFDF91CF911F9160
S11345900F91FF90EF90DF90CF90BF90AF909F90DE
S11345A08F907F906F905F904F903F902F900895E1
S11345B0F999FECF92BD81BD81E08FBB80B508958E
S11345C0F894F999FECF92BD81BD81E08FBB80B58F
S11345D08627962F982359F06F3F29F060BD84E019
S11345E08FBBF99A0AC084E18FBBF99A06C088236D
S11345F021F060BD84E28FBBF99A789408958F927C
S11346009F92AF92BF92CF92DF92EF92FF920F935D
S11346101F93CF93DF937C018B016A0141155105F0
S113462009F15A01C0E0D1E001C0C401C11108C0C0
S11346306C2FCC0F770BC72FCC1FCC27CC1F01C0FE
S1134640CD2FF80161918F01C60F4C01FFEF8F1A36
S11346509F0A0E94E02221E0A21AB10831F7EC0C73
S1134660FD1C01C0C0E06C2FC7010E94E022DF9155
S1134670CF911F910F91FF90EF90DF90CF90BF905B
S1134680AF909F908F9008958F929F92AF92BF9218
S1134690CF92DF92EF92FF920F931F93CF93DF930A
S11346A07B016A014115510511F1C82FD92F5A0117
S11346B0CB01912C882483948C010F5F1F4F0E949F
S11346C0D822911008C0292D990C330B232F221FB7
S11346D02227221F01C0282D982E920E899381E053
S11346E0A81AB108C80141F7EC0CFD1C01C0912CBB
S11346F0C7010E94D82221E030E0891511F020E0A2
S113470030E0C901DF91CF911F910F91FF90EF909D
S1134710DF90CF90BF90AF909F908F9008950F93AC
S11347201F93CF93C82F8B010E945A1721E5C29F74
S1134730C001112440E550E0B8019D5F0E94FF22B2
S1134740CF911F910F91089540E550E0BC018EEA8E
S113475093E00E94FF2208950F931F93CF93C82FD5
S11347608B010E945A172DE0C29FC00111244CE016
S113477050E0B8019E5F0E94FF22CF911F910F91DC
S113478008956AE080E090E00E94E02245E550E070
S11347906EE077E081E090E00E94FF2208950F939D
S11347A01F93CF93DF93CDB7DEB72C970FB6F89452
S11347B0DEBF0FBECDBF082F80FF0BC085E5ECE642
S11347C0F2E0AEE0B7E005900D928A95E1F70E9421
S11347D0C12301FF11C0FE0131968CE0DF011D925F
S11347E08A95E9F710E0BE016F5F7F4F812F0E9429
S11347F0AC231F5F1830B9F702FF14C060E080E0FB
S113480093E00E94E02260E081E093E00E94E022D5
S113481060E081E593E00E94E02260E082E593E0BD
S11348200E94E02203FF0AC060E08EEA93E00E9447
S1134830E02260E08FEA93E00E94E0222C960FB61B
S1134840F894DEBF0FBECDBFDF91CF911F910F91C2
S113485008951F93CF93DF93182FEB0181E5189FE1
S1134860B00111247D5F40E550E0CE010E94442355
S1134870892B39F41882BE01812F0E948F2380E096
S113488001C081E0DF91CF911F910895CF93DF9311
S1134890EC0140E550E06EEA73E00E944423892B6A
S11348A031F41882CE010E94A42380E001C081E08B
S11348B0DF91CF9108951F93CF93DF93182FEB01CE
S11348C08DE0189FB00111247E5F4CE050E0CE01D2
S11348D00E944423892B59F48CE0FE0111928A959D
S11348E0E9F7BE01812F0E94AC2380E001C081E082
S11348F0DF91CF911F91089580E090E00E94D8222B
S11349008A3069F445E550E061E070E08EE097E0BC
S11349100E94442321E0892B19F420E001C020E007
S1134920822F0895CF92DF92EF92FF92CF93DF937D
S1134930C82F6A017B0120E030E0A901C701B6015C
S11349400E94E33A88230CF406C1C436A0F0ECE9D3
S1134950EC0FE33020F0EA3008F00BC1FEC0F0E0C9
S1134960EE0FFF1FEE0FFF1FE25FF84FC082D182F0
S1134970E282F382ECC0C701B6010E94283E0E9485
S1134980663B8C2F90E08132910508F0E8C0FC0171
S1134990EC51FF4F0C94703E633008F4E2C0609316
S11349A03E07D5C060934107D2C060933F070E9481
S11349B0C319CDC0609340070E94C319C8C06623C1
S11349C031F0E3E5F7E0808184608083C0C0E3E5F3
S11349D0F7E080818B7F8083BAC0662331F0E3E502
S11349E0F7E0808180648083B2C0E3E5F7E08081F2
S11349F08F7B8083ACC0662331F0E3E5F7E08081F0
S1134A008068808305C0E3E5F7E080818F77808349
S1134A1080E00E94A0329BC06093420798C0C0927D
S1134A204307D0924407E0924507F09246078FC0AF
S1134A30C0924707D0924807E0924907F0924A078C
S1134A4086C0662331F0E3E5F7E0808181608083EE
S1134A5005C0E3E5F7E080818E7F80830E94D9362C
S1134A6076C0662341F08091530784FF7CC0806246
S1134A70809353076CC0E3E5F7E080818F7D8083EA
S1134A8066C0662331F0E3E5F7E0808188608083C7
S1134A9005C0E3E5F7E08081877F80830E94792E5B
S1134AA056C0662331F0E3E5F7E0808180618083BE
S1134AB04EC0E3E5F7E080818F7C808348C060933B
S1134AC0540745C0C0925507D0925607E092570745
S1134AD0F09258073CC0C0925907D0925A07E0920E
S1134AE05B07F0925C0733C0862F90E090935E07DB
S1134AF080935D072CC0C0925F07D0926007E0925C
S1134B006107F092620723C0C0924B07D0924C0712
S1134B10E0924D07F0924E070E94861118C0C09291
S1134B204F07D0925007E0925107F09252070E942B
S1134B3086110DC0662331F0E3E5F7E080818260E1
S1134B40808305C0E3E5F7E080818D7F80830E9448
S1134B50C12380E058C084E056C083E054C083E0A1
S1134B6052C086E050C08AE04EC083E04CC083E06F
S1134B704AC0E2E9EC0FE33070F0EA30B0F388E8C1
S1134B808C0F8330A0F08A3090F38EE78C0F833043
S1134B9048F183E038C0F0E0EE0FFF1FEE0FFF1F77
S1134BA0E65EF84FC082D182E282F382D0CFC82F72
S1134BB0D0E0CC0FDD1FCC0FDD1FCA5DD84F20E045
S1134BC030E040E752E4C701B6010E94453D20E0D1
S1134BD030E040E752E40E94453D688379838A834C
S1134BE09B83B5CFE82FF0E0EE0FFF1FEE0FFF1F02
S1134BF0EE5CF84FF7FAF094F7F8F094C082D182A3
S1134C00E282F382A4CFDF91CF91FF90EF90DF9007
S1134C10CF9008950E947C24811108C087E00E94EF
S1134C2026338FEF0E94CF230E94A0330895882358
S1134C3021F0813021F080E1089584E0089588E036
S1134C400895882321F0813021F080E8089580E2DE
S1134C50089580E40895882321F0813021F080E1D3
S1134C60089582E0089584E008952F923F924F9230
S1134C705F926F927F928F929F92AF92BF92CF92E8
S1134C80DF92EF92FF920F931F93CF93DF93C09124
S1134C905902C11101C0C0E1C150D0915702DC17C3
S1134CA009F436C10C2F10E022E3C29FC001112485
S1134CB0FC01E55AFD4F6F01E688F788908C818CE2
S1134CC0628D738D848D958D9B01AC010E94EE39AC
S1134CD0F601268D378D40A151A10E94453DA62E97
S1134CE0B72EC82ED92E262F372F482F592F6E2D89
S1134CF07F2D892D982D0E94E33A882324F0EA2CF5
S1134D00FB2C9C2C8D2C82E3809FF001819FF00D65
S1134D101124E55AFD4F8E2D9F2DA92DB82D828B80
S1134D20938BA48BB58BC11101C0C0E1C150DC13BE
S1134D3007C080915A02D8137CC00E94581A79C0C7
S1134D4022E3209FC001219F900D11249C01255A2C
S1134D503D4F6901D2E3EC2EF12CDE9D8001DF9DF5
S1134D60100D1124055A1D4FC11101C0C0E1C150DD
S1134D7080915A028C1302C00E94581ADE9DF001E1
S1134D80DF9DF00D1124E55AFD4F46885788608C4D
S1134D90718CA301920162897389848995890E9427
S1134DA0E33A882309F440C0DE9DC001DF9D900DE5
S1134DB01124FC01E55AFD4F5F01628D738D848DD2
S1134DC0958D9B01AC010E94EE39F501268D378D3E
S1134DD040A151A10E94453DF601228933894489AD
S1134DE055890E94EE394B015C019B01AC01C30162
S1134DF0B2010E94053D181664F4DE9DF001DF9DAA
S1134E00F00D1124E55AFD4F828A938AA48AB58A4B
S1134E100BC0DE9DF001DF9DF00D1124E55AFD4F1E
S1134E20428A538A648A758A6801809157028C1376
S1134E3092CF20905702F2E32F9EC00111249C01CF
S1134E40255A3D4F7901C1E0C20DC03109F4C0E0DB
S1134E5030905902D2E358C0CC2ED12CDC9D800175
S1134E60DD9D100D1124055A1D4FF701428853880A
S1134E7064887588F80182889388A488B588A50118
S1134E809401C301B2010E94E33A882324F5F70197
S1134E90628D738D848D958D9B01AC010E94EE39DA
S1134EA0F701268D378D40A151A10E94453DA301F4
S1134EB092010E94EE392B013C019B01AC01C5011A
S1134EC0B4010E94053D181634F4F801428A538A4D
S1134ED0648A758A2C2EDC9DF001DD9DF00D112471
S1134EE0E55AFD4F26893789408D518D6289738932
S1134EF0848995890E94E33A811101C02C2ECF5FE9
S1134F00C03109F4C0E07801C311A6CF2092570242
S1134F10DF91CF911F910F91FF90EF90DF90CF9091
S1134F20BF90AF909F908F907F906F905F904F90C5
S1134F303F902F90089510925A021092590281E0E6
S1134F40809358021092570208958CE1EBE3F2E04B
S1134F50DF011D928A95E9F70E949B2708958091AD
S1134F605A0290915902981769F091E0980F903184
S1134F7009F490E020915702821302C090935702E3
S1134F8090935A0208958091590222E3829FC001AE
S1134F901124855A9D4F089580915A029091590287
S1134FA0981739F022E3829FC0011124855A9D4F3E
S1134FB0089580E090E00895E0915A02EF5FE031B7
S1134FC009F4E0E0809159028E1759F082E3E89FDA
S1134FD0F0011124E55AFD4F62897389848995890A
S1134FE0089560E070E0CB01089581E020915A02B9
S1134FF090915802291380E00895AF92BF92CF9206
S1135000DF92EF92FF920F931F93CF93DF93EC0104
S11350101AA5ABA4ECA40DA5898980FF1AC06091E0
S1135020840570E080E090E00E94973B2AE037ED31
S113503043E25CE30E94453D9B01AC01612F7A2D64
S11350408E2D902F0E94453D162FA72EE82E092F56
S11350502FC082FD19C06091830570E080E090E06C
S11350600E94973B2AE037ED43E25CE30E94453D12
S11350709B01AC01612F7A2D8E2D902F0E94453D0E
S1135080162FA72EE82E092FBEA0CFA0D8A4F9A4CE
S11350902B2D3C2D4D2D5F2D612F7A2D8E2D902F94
S11350A00E94053D181624F41B2DAC2CED2C0F2D5D
S11350B020E030E040E85FE3612F7A2D8E2D902FC1
S11350C00E94053D18161CF4DA2DCE2D04C010E004
S11350D0D0E0C0E80FE3612F7D2F8C2F902FDF915C
S11350E0CF911F910F91FF90EF90DF90CF90BF90E1
S11350F0AF9008955F926F927F928F929F92AF923A
S1135100BF92CF92DF92EF92FF920F931F93CF93B0
S1135110DF9310915A02509059020F2EF9E99F2EF5
S1135120F02D0F2EF6E78F2EF02D0F2EF6E97F2EA1
S1135130F02D0F2EFEE76F2EF02D0F2EF2E3CF2E63
S1135140F02D74C0C12FD0E0CC9EC001CD9E900D37
S11351501124855A9D4F0E94FD27062FF72EE82E15
S1135160D92E262F372F482F592F692D782D872D8B
S1135170962D0E94E33A8823CCF4CC9EC001CD9EA8
S1135180900D11249C01255A3D4F5901292D382D8C
S1135190472D562D692D782D872D962D0E94453D3E
S11351A0F501668B778B808F918F18C0CC9EC001E0
S11351B0CD9E900D11249C01255A3D4F5901202F5D
S11351C03F2D4E2D5D2D602F7F2D8E2D9D2D0E9408
S11351D0453DF501668B778B808F918FCC9EF001D6
S11351E0CD9EF00D1124E55AFD4F82A093A0A4A0FA
S11351F0B5A0A501940166897789808D918D0E945F
S1135200053D18165CF4CC9EF001CD9EF00D1124E2
S1135210E55AFD4F868A978AA08EB18E1F5F1031A2
S113522009F410E0902E8F2C7E2C6D2C15118ACF52
S1135230892D982DA72DB62D809353029093540257
S1135240A0935502B0935602DF91CF911F910F9115
S1135250FF90EF90DF90CF90BF90AF909F908F9092
S11352607F906F905F9008952F923F924F925F923C
S11352706F927F928F929F92AF92BF92CF92DF9262
S1135280EF92FF920F931F93CF93DF93CDB7DEB7C7
S1135290C654D1090FB6F894DEBF0FBECDBF259614
S11352A07FAF6EAF259720905902A22CB12C22E338
S11352B02A9DA0012B9D500D1124BA01655A7D4FE2
S11352C021967FAF6EAF2197FB0111922A95E9F7E2
S11352D02596EEADFFAD25972085FB01218B259604
S11352E0EEADFFAD25974481558166817781219686
S11352F0EEADFFAD219746A757A760AB71AB21FF79
S11353000AC02CE0ECE9F5E0DE011D9601900D9257
S11353102A95E1F76DC22CE0EBE3F2E0DE011D9685
S113532001900D922A95E1F763C2E9ADFAAD61915E
S1135330719181919191FAAFE9AFEBADFCAD2191FF
S1135340319141915191FCAFEBAF2DAB3EAB4FABE3
S113535058AF0E94453D0E94123DF4016193719340
S1135360819391934F01F601019111912191319112
S11353706F01601B710B820B930B8B019C013AF440
S1135380002711279801061B170B280B390BF10175
S113539001931193219331931F01F70140805180B0
S11353A062807380401651066206730610F4280169
S11353B03901F70140825182628273820E94973BD5
S11353C02DA93EA94FA958AD0E94ED3AEDADFEAD11
S11353D06193719381939193FEAFEDAF20E030E040
S11353E0A9010E94E33A882354F489A90E94212642
S11353F02796EEADFFAD27979081892B8083F9A97D
S1135400FF5FF9ABF33009F090CF82E38A9DF0019E
S11354108B9DF00D1124E55AFD4F84859585A68555
S1135420B785892B8A2B8B2B09F4DEC1CE014996D3
S11354300E94A32D22E32A9D80012B9D100D11248F
S1135440055A1D4FF801668F778F80A391A3BE0183
S1135450675E7F4F86E297E00E940A2EF801628F12
S1135460738F848F958FBE01675E7F4F8AE197E0CB
S11354700E940A2EF80166A377A380A791A7118939
S113548010FF0DC022E32A9DF0012B9DF00D112485
S1135490E55AFD4F62A773A784A795A722C0259656
S11354A0EEADFFAD2597208131814281538182E3A6
S11354B08A9DF0018B9DF00D1124E55AFD4F22A722
S11354C033A744A755A713FF0CC07F01668D778DC2
S11354D080A191A10E94453DF70162A773A784A70B
S11354E095A79091590280915A02981711F011FFD3
S11354F011C082E38A9DF0018B9DF00D1124E55AC1
S1135500FD4F128A138A148A158A12A213A214A2B6
S113551015A2D8C007E412E01E01F5E22F0E311CDB
S1135520410119AA1AAA1BAA1CAAF801C190D19078
S1135530E190F1908F012396EEADFFAD239741905A
S11355405190619071902396FFAFEEAF2397A30122
S11355509201C701B6010E94453D9B01AC0169A9B6
S11355607AA98BA99CA90E94ED3969AB7AAB8BAB64
S11355709CABA7019601C301B2010E94ED39F10170
S113558061937193819391931F0123962EAD3FAD47
S113559023972815390549F62FEE3FEF4FE75FE3D0
S11355A069A97AA98BA99CA90E94053D18166CF4D7
S11355B082E38A9DF0018B9DF00D1124E55AFD4F85
S11355C012A213A214A215A27DC02FEE3FEF4FE743
S11355D05FEB69A97AA98BA99CA90E94E33A882365
S11355E08CF482E38A9DF0018B9DF00D1124E55A21
S11355F0FD4F89E996E7A6E9BEE782A393A3A4A396
S1135600B5A360C0CE0185960E94A32DBE016B5D3B
S11356107F4F86E297E00E940A2E6B017C0129A944
S11356203AA94BA95CA960E070E080E89FE30E947E
S1135630ED3920E030E040E05FE30E94453D0E9408
S1135640E43D2B013C0120914307309144074091F4
S1135650450750914607C701B6010E94453DA30185
S113566092010E94453D6B017C01A301920160E01F
S113567070E080E89FE30E94ED399B01AC01C70113
S1135680B6010E94ED3AE62EF72E082F192F20E0DE
S113569030E0A9010E94E33A882324F4E12CF12CA0
S11356A000E010E082E38A9DF0018B9DF00D11244F
S11356B0E55AFD4F4E2D5F2D602F712F42A353A34A
S11356C064A375A382E38A9DF0018B9DF00D1124E0
S11356D0E55AFD4F818981FD89C021968EAD9FAD2C
S11356E021970E94FD276B017C014090530250904A
S11356F054026090550270905602A30192010E94D8
S1135700053D1816A4F482E38A9D80018B9D100D3B
S11357101124055A1D4FA3019201C301B2010E9435
S1135720453DF801668B778B808F918F13C082E3A0
S11357308A9D80018B9D100D1124055A1D4FA701D0
S11357409601C701B6010E94453DF801668B778B2F
S1135750808F918F82E38A9DF0018B9DF00D11243F
S1135760E55AFD4F42A053A064A075A0A301920185
S113577066897789808D918D0E94053D181664F4A1
S113578082E38A9DF0018B9DF00D1124E55AFD4FB3
S1135790468A578A608E718EC0925302D092540208
S11357A0E0925502F09256028CE0FE017996A7E44D
S11357B0B2E001900D928A95E1F78CE0FE013196FA
S11357C0ABE3B2E001900D928A95E1F78091580223
S11357D0809359028F5F803109F480E080935802EE
S11357E00E94352681E039C080E037C081E035C0B1
S11357F089AF9AAF2EE037E03CAF2BAFAE014F5FDD
S11358005F4F4A016E015DE0C50ED11C62E3269E26
S1135810C0011124FC01E55AFD4F1F019E01275EC2
S11358203F4F23963FAF2EAF23973EAF2DAF10E0EF
S113583022E32A9DC0012B9D900D1124855A9D4F72
S11358407C013CE0E30EF11CAC01405F5F4F279606
S11358505FAF4EAF279719AB68CDCA5BDF4F0FB66A
S1135860F894DEBF0FBECDBFDF91CF911F910F9192
S1135870FF90EF90DF90CF90BF90AF909F908F906C
S11358807F906F905F904F903F902F900895ECE938
S1135890F5E0ABE3B2E088EA95E041915191619182
S11358A071914D935D936D937D93E817F907A9F773
S11358B008950E94581A80915A02809357020E94B8
S11358C0352608954F925F926F927F928F929F92A6
S11358D0AF92BF92CF92DF92EF92FF920F931F93FA
S11358E0CF93DF93DC01FB01C081D0E0FC01EC0F1E
S11358F0FD1F90819D3229F4EF012296918101E0F0
S11359000BC09B3229F02196CA0FDB1F00E004C0B4
S1135910EF012296918100E080E020E010E0412C2C
S1135920512C320131E0FE0190539A3010F52F5F73
S11359302930D8F48111115053014201880C991C6B
S1135940AA1CBB1C880C991CAA1CBB1C840C951C8F
S1135950A61CB71C880C991CAA1CBB1C240135016D
S1135960490E511C611C711C09C0811107C01F5FC5
S113597005C09E3F31F4811104C0832F908121968C
S1135980D2CF222309F452C06A017B015D01C30115
S1135990B2010E94953B2B013C0120E030E0A901BB
S11359A00E94E33A882351F11F3F6CF42AE037ED5B
S11359B043E25CE3C301B2010E94453D2B013C017B
S11359C01E5F1F3F9CF311235CF42DEC3CEC4CEC6C
S11359D05DE3C301B2010E94453D2B013C010EC0B1
S11359E0111664F420E030E040E251E4C301B20156
S11359F00E94453D2B013C011150A1F7002351F0B9
S1135A0077FA709477F87094F6014082518262823A
S1135A10738205C0F6014082518262827382CA1980
S1135A20DB09C150F701C08381E001C080E0DF9150
S1135A30CF911F910F91FF90EF90DF90CF90BF9087
S1135A40AF909F908F907F906F905F904F9008954C
S1135A50FF920F931F93CF93DF93F42E20E030E057
S1135A6040EA51E40E94453D0E94CC3A0E94663BC4
S1135A706115710521F120917D05211120C0EB01F3
S1135A800CE715E005C02197F8018181811117C049
S1135A90F11003C00E94AD1506C00E94F013F80176
S1135AA0828181FD0CC0FFEF20E782E0F1502040AD
S1135AB08040E1F700C00000C130D10521F7DF913B
S1135AC0CF911F910F91FF900895009741F0EFE956
S1135AD0FFE03197F1F700C000000197C1F7089586
S1135AE04F925F926F927F928F929F92AF92BF92EA
S1135AF0CF92DF92EF92FF924B015C0169017A0130
S1135B00A5019401C501B4010E94453D4B015C010E
S1135B10A7019601C701B6010E94453D9B01AC0156
S1135B20C501B4010E94EE390E94E43DFF90EF905C
S1135B30DF90CF90BF90AF909F908F907F906F90A9
S1135B405F904F9008954F925F926F927F92AF92C1
S1135B50BF92CF92DF92EF92FF920F931F93CF9356
S1135B60DF93EC015C018CE0A80EB11C8E01412C8A
S1135B70512C3201F801C190D190E190F1908F0144
S1135B8020E030E0A901C701B6010E94E33A88236E
S1135B9071F0A7019601C701B6010E94453D9B0122
S1135BA0AC01C301B2010E94EE392B013C010A157C
S1135BB01B0501F7C301B2010E94E43D2B013C0126
S1135BC09B01AC0160E070E080E89FE30E94ED3A45
S1135BD06B017C01A7019601688179818A819B818F
S1135BE00E94453D6993799389939993CA15DB057E
S1135BF089F7C301B201DF91CF911F910F91FF90FB
S1135C00EF90DF90CF90BF90AF907F906F905F90B8
S1135C104F9008956F927F928F929F92AF92BF920E
S1135C20CF92DF92EF92FF920F931F93CF93DF9364
S1135C30EB018C017B018CE0E80EF11C0F2EF9E9DD
S1135C407F2EF02D0F2EF6E7CF2EF02D0F2EF6E936
S1135C50DF2EF02D0F2EFEE76F2EF02D89909990F8
S1135C60A990B99020E030E0A901C501B4010E94D7
S1135C70E33A8823D9F0A5019401F8016081718188
S1135C80828193810E94ED3A4B015C01E894B7F85C
S1135C90272D3C2D4D2D562DC501B4010E94053DE7
S1135CA0181624F0782CC92CDA2C6B2C0C5F1F4F9F
S1135CB0CE15DF0599F6672D7C2D8D2D962DDF9160
S1135CC0CF911F910F91FF90EF90DF90CF90BF90F5
S1135CD0AF909F908F907F906F900895EBE6F0E0E7
S1135CE08081897E8083E8E6F0E080818E7F8083F6
